{
	"11.VerifySignature/VerifySignature.sol": {
		"VerifyContract": {
			"abi": [
				{
					"inputs": [
						{
							"internalType": "bytes32",
							"name": "_messageHash",
							"type": "bytes32"
						}
					],
					"name": "getEthSignedMessageHash",
					"outputs": [
						{
							"internalType": "bytes32",
							"name": "",
							"type": "bytes32"
						}
					],
					"stateMutability": "pure",
					"type": "function"
				},
				{
					"inputs": [
						{
							"internalType": "string",
							"name": "_message",
							"type": "string"
						}
					],
					"name": "getMessageHash",
					"outputs": [
						{
							"internalType": "bytes32",
							"name": "",
							"type": "bytes32"
						}
					],
					"stateMutability": "pure",
					"type": "function"
				},
				{
					"inputs": [
						{
							"internalType": "bytes32",
							"name": "_ethSignedMessageHash",
							"type": "bytes32"
						},
						{
							"internalType": "bytes",
							"name": "_sig",
							"type": "bytes"
						}
					],
					"name": "recover",
					"outputs": [
						{
							"internalType": "address",
							"name": "",
							"type": "address"
						}
					],
					"stateMutability": "pure",
					"type": "function"
				},
				{
					"inputs": [
						{
							"internalType": "bytes",
							"name": "_sig",
							"type": "bytes"
						}
					],
					"name": "split",
					"outputs": [
						{
							"internalType": "bytes32",
							"name": "r",
							"type": "bytes32"
						},
						{
							"internalType": "bytes32",
							"name": "s",
							"type": "bytes32"
						},
						{
							"internalType": "uint8",
							"name": "v",
							"type": "uint8"
						}
					],
					"stateMutability": "pure",
					"type": "function"
				},
				{
					"inputs": [
						{
							"internalType": "address",
							"name": "_signer",
							"type": "address"
						},
						{
							"internalType": "string",
							"name": "_message",
							"type": "string"
						},
						{
							"internalType": "bytes",
							"name": "_sig",
							"type": "bytes"
						}
					],
					"name": "verify",
					"outputs": [
						{
							"internalType": "bool",
							"name": "",
							"type": "bool"
						}
					],
					"stateMutability": "pure",
					"type": "function"
				}
			],
			"devdoc": {
				"kind": "dev",
				"methods": {},
				"version": 1
			},
			"evm": {
				"assembly": "    /* \"11.VerifySignature/VerifySignature.sol\":60:1373  contract VerifyContract {... */\n  mstore(0x40, 0x80)\n  callvalue\n  dup1\n  iszero\n  tag_1\n  jumpi\n  0x00\n  dup1\n  revert\ntag_1:\n  pop\n  dataSize(sub_0)\n  dup1\n  dataOffset(sub_0)\n  0x00\n  codecopy\n  0x00\n  return\nstop\n\nsub_0: assembly {\n        /* \"11.VerifySignature/VerifySignature.sol\":60:1373  contract VerifyContract {... */\n      mstore(0x40, 0x80)\n      callvalue\n      dup1\n      iszero\n      tag_1\n      jumpi\n      0x00\n      dup1\n      revert\n    tag_1:\n      pop\n      jumpi(tag_2, lt(calldatasize, 0x04))\n      shr(0xe0, calldataload(0x00))\n      dup1\n      0x19045a25\n      eq\n      tag_3\n      jumpi\n      dup1\n      0x2dd34f0f\n      eq\n      tag_4\n      jumpi\n      dup1\n      0x65d894e9\n      eq\n      tag_5\n      jumpi\n      dup1\n      0xb446f3b2\n      eq\n      tag_6\n      jumpi\n      dup1\n      0xfa540801\n      eq\n      tag_7\n      jumpi\n    tag_2:\n      0x00\n      dup1\n      revert\n        /* \"11.VerifySignature/VerifySignature.sol\":813:1046  function recover(bytes32 _ethSignedMessageHash, bytes memory _sig)... */\n    tag_3:\n      tag_8\n      0x04\n      dup1\n      calldatasize\n      sub\n      dup2\n      add\n      swap1\n      tag_9\n      swap2\n      swap1\n      tag_10\n      jump\t// in\n    tag_9:\n      tag_11\n      jump\t// in\n    tag_8:\n      mload(0x40)\n      tag_12\n      swap2\n      swap1\n      tag_13\n      jump\t// in\n    tag_12:\n      mload(0x40)\n      dup1\n      swap2\n      sub\n      swap1\n      return\n        /* \"11.VerifySignature/VerifySignature.sol\":91:420  function verify(address _signer, string memory _message, bytes memory _sig) ... */\n    tag_4:\n      tag_14\n      0x04\n      dup1\n      calldatasize\n      sub\n      dup2\n      add\n      swap1\n      tag_15\n      swap2\n      swap1\n      tag_16\n      jump\t// in\n    tag_15:\n      tag_17\n      jump\t// in\n    tag_14:\n      mload(0x40)\n      tag_18\n      swap2\n      swap1\n      tag_19\n      jump\t// in\n    tag_18:\n      mload(0x40)\n      dup1\n      swap2\n      sub\n      swap1\n      return\n        /* \"11.VerifySignature/VerifySignature.sol\":1054:1369  function split(bytes memory _sig) public pure returns (bytes32 r, bytes32 s, uint8 v) {... */\n    tag_5:\n      tag_20\n      0x04\n      dup1\n      calldatasize\n      sub\n      dup2\n      add\n      swap1\n      tag_21\n      swap2\n      swap1\n      tag_22\n      jump\t// in\n    tag_21:\n      tag_23\n      jump\t// in\n    tag_20:\n      mload(0x40)\n      tag_24\n      swap4\n      swap3\n      swap2\n      swap1\n      tag_25\n      jump\t// in\n    tag_24:\n      mload(0x40)\n      dup1\n      swap2\n      sub\n      swap1\n      return\n        /* \"11.VerifySignature/VerifySignature.sol\":432:572  function getMessageHash(string memory _message) public pure returns(bytes32) {... */\n    tag_6:\n      tag_26\n      0x04\n      dup1\n      calldatasize\n      sub\n      dup2\n      add\n      swap1\n      tag_27\n      swap2\n      swap1\n      tag_28\n      jump\t// in\n    tag_27:\n      tag_29\n      jump\t// in\n    tag_26:\n      mload(0x40)\n      tag_30\n      swap2\n      swap1\n      tag_31\n      jump\t// in\n    tag_30:\n      mload(0x40)\n      dup1\n      swap2\n      sub\n      swap1\n      return\n        /* \"11.VerifySignature/VerifySignature.sol\":580:805  function getEthSignedMessageHash(bytes32 _messageHash) public pure returns(bytes32) {... */\n    tag_7:\n      tag_32\n      0x04\n      dup1\n      calldatasize\n      sub\n      dup2\n      add\n      swap1\n      tag_33\n      swap2\n      swap1\n      tag_34\n      jump\t// in\n    tag_33:\n      tag_35\n      jump\t// in\n    tag_32:\n      mload(0x40)\n      tag_36\n      swap2\n      swap1\n      tag_31\n      jump\t// in\n    tag_36:\n      mload(0x40)\n      dup1\n      swap2\n      sub\n      swap1\n      return\n        /* \"11.VerifySignature/VerifySignature.sol\":813:1046  function recover(bytes32 _ethSignedMessageHash, bytes memory _sig)... */\n    tag_11:\n        /* \"11.VerifySignature/VerifySignature.sol\":909:916  address */\n      0x00\n        /* \"11.VerifySignature/VerifySignature.sol\":935:944  bytes32 r */\n      dup1\n        /* \"11.VerifySignature/VerifySignature.sol\":946:955  bytes32 s */\n      0x00\n        /* \"11.VerifySignature/VerifySignature.sol\":957:964  uint8 v */\n      dup1\n        /* \"11.VerifySignature/VerifySignature.sol\":968:979  split(_sig) */\n      tag_38\n        /* \"11.VerifySignature/VerifySignature.sol\":974:978  _sig */\n      dup6\n        /* \"11.VerifySignature/VerifySignature.sol\":968:973  split */\n      tag_23\n        /* \"11.VerifySignature/VerifySignature.sol\":968:979  split(_sig) */\n      jump\t// in\n    tag_38:\n        /* \"11.VerifySignature/VerifySignature.sol\":934:979  (bytes32 r, bytes32 s, uint8 v) = split(_sig) */\n      swap3\n      pop\n      swap3\n      pop\n      swap3\n      pop\n        /* \"11.VerifySignature/VerifySignature.sol\":997:1038  ecrecover(_ethSignedMessageHash, v, r, s) */\n      0x01\n        /* \"11.VerifySignature/VerifySignature.sol\":1007:1028  _ethSignedMessageHash */\n      dup7\n        /* \"11.VerifySignature/VerifySignature.sol\":1030:1031  v */\n      dup3\n        /* \"11.VerifySignature/VerifySignature.sol\":1033:1034  r */\n      dup6\n        /* \"11.VerifySignature/VerifySignature.sol\":1036:1037  s */\n      dup6\n        /* \"11.VerifySignature/VerifySignature.sol\":997:1038  ecrecover(_ethSignedMessageHash, v, r, s) */\n      mload(0x40)\n      0x00\n      dup2\n      mstore\n      0x20\n      add\n      0x40\n      mstore\n      mload(0x40)\n      tag_39\n      swap5\n      swap4\n      swap3\n      swap2\n      swap1\n      tag_40\n      jump\t// in\n    tag_39:\n      0x20\n      mload(0x40)\n      0x20\n      dup2\n      sub\n      swap1\n      dup1\n      dup5\n      sub\n      swap1\n      dup6\n      gas\n      staticcall\n      iszero\n      dup1\n      iszero\n      tag_42\n      jumpi\n      returndatasize\n      0x00\n      dup1\n      returndatacopy\n      revert(0x00, returndatasize)\n    tag_42:\n      pop\n      pop\n      pop\n      mload(sub(mload(0x40), 0x20))\n        /* \"11.VerifySignature/VerifySignature.sol\":990:1038  return ecrecover(_ethSignedMessageHash, v, r, s) */\n      swap4\n      pop\n      pop\n      pop\n      pop\n        /* \"11.VerifySignature/VerifySignature.sol\":813:1046  function recover(bytes32 _ethSignedMessageHash, bytes memory _sig)... */\n      swap3\n      swap2\n      pop\n      pop\n      jump\t// out\n        /* \"11.VerifySignature/VerifySignature.sol\":91:420  function verify(address _signer, string memory _message, bytes memory _sig) ... */\n    tag_17:\n        /* \"11.VerifySignature/VerifySignature.sol\":200:204  bool */\n      0x00\n        /* \"11.VerifySignature/VerifySignature.sol\":222:241  bytes32 messageHash */\n      dup1\n        /* \"11.VerifySignature/VerifySignature.sol\":244:268  getMessageHash(_message) */\n      tag_44\n        /* \"11.VerifySignature/VerifySignature.sol\":259:267  _message */\n      dup5\n        /* \"11.VerifySignature/VerifySignature.sol\":244:258  getMessageHash */\n      tag_29\n        /* \"11.VerifySignature/VerifySignature.sol\":244:268  getMessageHash(_message) */\n      jump\t// in\n    tag_44:\n        /* \"11.VerifySignature/VerifySignature.sol\":222:268  bytes32 messageHash = getMessageHash(_message) */\n      swap1\n      pop\n        /* \"11.VerifySignature/VerifySignature.sol\":279:307  bytes32 ethSignedMessageHash */\n      0x00\n        /* \"11.VerifySignature/VerifySignature.sol\":310:346  getEthSignedMessageHash(messageHash) */\n      tag_45\n        /* \"11.VerifySignature/VerifySignature.sol\":334:345  messageHash */\n      dup3\n        /* \"11.VerifySignature/VerifySignature.sol\":310:333  getEthSignedMessageHash */\n      tag_35\n        /* \"11.VerifySignature/VerifySignature.sol\":310:346  getEthSignedMessageHash(messageHash) */\n      jump\t// in\n    tag_45:\n        /* \"11.VerifySignature/VerifySignature.sol\":279:346  bytes32 ethSignedMessageHash = getEthSignedMessageHash(messageHash) */\n      swap1\n      pop\n        /* \"11.VerifySignature/VerifySignature.sol\":405:412  _signer */\n      dup6\n        /* \"11.VerifySignature/VerifySignature.sol\":366:412  recover(ethSignedMessageHash, _sig) == _signer */\n      0xffffffffffffffffffffffffffffffffffffffff\n      and\n        /* \"11.VerifySignature/VerifySignature.sol\":366:401  recover(ethSignedMessageHash, _sig) */\n      tag_46\n        /* \"11.VerifySignature/VerifySignature.sol\":374:394  ethSignedMessageHash */\n      dup3\n        /* \"11.VerifySignature/VerifySignature.sol\":396:400  _sig */\n      dup7\n        /* \"11.VerifySignature/VerifySignature.sol\":366:373  recover */\n      tag_11\n        /* \"11.VerifySignature/VerifySignature.sol\":366:401  recover(ethSignedMessageHash, _sig) */\n      jump\t// in\n    tag_46:\n        /* \"11.VerifySignature/VerifySignature.sol\":366:412  recover(ethSignedMessageHash, _sig) == _signer */\n      0xffffffffffffffffffffffffffffffffffffffff\n      and\n      eq\n        /* \"11.VerifySignature/VerifySignature.sol\":359:412  return recover(ethSignedMessageHash, _sig) == _signer */\n      swap3\n      pop\n      pop\n      pop\n        /* \"11.VerifySignature/VerifySignature.sol\":91:420  function verify(address _signer, string memory _message, bytes memory _sig) ... */\n      swap4\n      swap3\n      pop\n      pop\n      pop\n      jump\t// out\n        /* \"11.VerifySignature/VerifySignature.sol\":1054:1369  function split(bytes memory _sig) public pure returns (bytes32 r, bytes32 s, uint8 v) {... */\n    tag_23:\n        /* \"11.VerifySignature/VerifySignature.sol\":1109:1118  bytes32 r */\n      0x00\n        /* \"11.VerifySignature/VerifySignature.sol\":1120:1129  bytes32 s */\n      dup1\n        /* \"11.VerifySignature/VerifySignature.sol\":1131:1138  uint8 v */\n      0x00\n        /* \"11.VerifySignature/VerifySignature.sol\":1174:1176  65 */\n      0x41\n        /* \"11.VerifySignature/VerifySignature.sol\":1159:1163  _sig */\n      dup5\n        /* \"11.VerifySignature/VerifySignature.sol\":1159:1170  _sig.length */\n      mload\n        /* \"11.VerifySignature/VerifySignature.sol\":1159:1176  _sig.length == 65 */\n      eq\n        /* \"11.VerifySignature/VerifySignature.sol\":1151:1203  require(_sig.length == 65, \"invalid string entered\") */\n      tag_48\n      jumpi\n      mload(0x40)\n      0x08c379a000000000000000000000000000000000000000000000000000000000\n      dup2\n      mstore\n      0x04\n      add\n      tag_49\n      swap1\n      tag_50\n      jump\t// in\n    tag_49:\n      mload(0x40)\n      dup1\n      swap2\n      sub\n      swap1\n      revert\n    tag_48:\n        /* \"11.VerifySignature/VerifySignature.sol\":1260:1262  32 */\n      0x20\n        /* \"11.VerifySignature/VerifySignature.sol\":1254:1258  _sig */\n      dup5\n        /* \"11.VerifySignature/VerifySignature.sol\":1250:1263  add(_sig, 32) */\n      add\n        /* \"11.VerifySignature/VerifySignature.sol\":1244:1264  mload(add(_sig, 32)) */\n      mload\n        /* \"11.VerifySignature/VerifySignature.sol\":1239:1264  r := mload(add(_sig, 32)) */\n      swap3\n      pop\n        /* \"11.VerifySignature/VerifySignature.sol\":1299:1301  64 */\n      0x40\n        /* \"11.VerifySignature/VerifySignature.sol\":1293:1297  _sig */\n      dup5\n        /* \"11.VerifySignature/VerifySignature.sol\":1289:1302  add(_sig, 64) */\n      add\n        /* \"11.VerifySignature/VerifySignature.sol\":1283:1303  mload(add(_sig, 64)) */\n      mload\n        /* \"11.VerifySignature/VerifySignature.sol\":1278:1303  s := mload(add(_sig, 64)) */\n      swap2\n      pop\n        /* \"11.VerifySignature/VerifySignature.sol\":1346:1348  96 */\n      0x60\n        /* \"11.VerifySignature/VerifySignature.sol\":1340:1344  _sig */\n      dup5\n        /* \"11.VerifySignature/VerifySignature.sol\":1336:1349  add(_sig, 96) */\n      add\n        /* \"11.VerifySignature/VerifySignature.sol\":1330:1350  mload(add(_sig, 96)) */\n      mload\n        /* \"11.VerifySignature/VerifySignature.sol\":1327:1328  0 */\n      0x00\n        /* \"11.VerifySignature/VerifySignature.sol\":1322:1351  byte(0, mload(add(_sig, 96))) */\n      byte\n        /* \"11.VerifySignature/VerifySignature.sol\":1317:1351  v := byte(0, mload(add(_sig, 96))) */\n      swap1\n      pop\n        /* \"11.VerifySignature/VerifySignature.sol\":1054:1369  function split(bytes memory _sig) public pure returns (bytes32 r, bytes32 s, uint8 v) {... */\n      swap2\n      swap4\n      swap1\n      swap3\n      pop\n      jump\t// out\n        /* \"11.VerifySignature/VerifySignature.sol\":432:572  function getMessageHash(string memory _message) public pure returns(bytes32) {... */\n    tag_29:\n        /* \"11.VerifySignature/VerifySignature.sol\":500:507  bytes32 */\n      0x00\n        /* \"11.VerifySignature/VerifySignature.sol\":554:562  _message */\n      dup2\n        /* \"11.VerifySignature/VerifySignature.sol\":537:563  abi.encodePacked(_message) */\n      add(0x20, mload(0x40))\n      tag_52\n      swap2\n      swap1\n      tag_53\n      jump\t// in\n    tag_52:\n      mload(0x40)\n      0x20\n      dup2\n      dup4\n      sub\n      sub\n      dup2\n      mstore\n      swap1\n      0x40\n      mstore\n        /* \"11.VerifySignature/VerifySignature.sol\":527:564  keccak256(abi.encodePacked(_message)) */\n      dup1\n      mload\n      swap1\n      0x20\n      add\n      keccak256\n        /* \"11.VerifySignature/VerifySignature.sol\":520:564  return keccak256(abi.encodePacked(_message)) */\n      swap1\n      pop\n        /* \"11.VerifySignature/VerifySignature.sol\":432:572  function getMessageHash(string memory _message) public pure returns(bytes32) {... */\n      swap2\n      swap1\n      pop\n      jump\t// out\n        /* \"11.VerifySignature/VerifySignature.sol\":580:805  function getEthSignedMessageHash(bytes32 _messageHash) public pure returns(bytes32) {... */\n    tag_35:\n        /* \"11.VerifySignature/VerifySignature.sol\":655:662  bytes32 */\n      0x00\n        /* \"11.VerifySignature/VerifySignature.sol\":773:785  _messageHash */\n      dup2\n        /* \"11.VerifySignature/VerifySignature.sol\":692:796  abi.encodePacked(... */\n      add(0x20, mload(0x40))\n      tag_55\n      swap2\n      swap1\n      tag_56\n      jump\t// in\n    tag_55:\n      mload(0x40)\n      0x20\n      dup2\n      dup4\n      sub\n      sub\n      dup2\n      mstore\n      swap1\n      0x40\n      mstore\n        /* \"11.VerifySignature/VerifySignature.sol\":682:797  keccak256(abi.encodePacked(... */\n      dup1\n      mload\n      swap1\n      0x20\n      add\n      keccak256\n        /* \"11.VerifySignature/VerifySignature.sol\":675:797  return keccak256(abi.encodePacked(... */\n      swap1\n      pop\n        /* \"11.VerifySignature/VerifySignature.sol\":580:805  function getEthSignedMessageHash(bytes32 _messageHash) public pure returns(bytes32) {... */\n      swap2\n      swap1\n      pop\n      jump\t// out\n        /* \"#utility.yul\":7:82   */\n    tag_57:\n        /* \"#utility.yul\":40:46   */\n      0x00\n        /* \"#utility.yul\":73:75   */\n      0x40\n        /* \"#utility.yul\":67:76   */\n      mload\n        /* \"#utility.yul\":57:76   */\n      swap1\n      pop\n        /* \"#utility.yul\":7:82   */\n      swap1\n      jump\t// out\n        /* \"#utility.yul\":88:205   */\n    tag_58:\n        /* \"#utility.yul\":197:198   */\n      0x00\n        /* \"#utility.yul\":194:195   */\n      dup1\n        /* \"#utility.yul\":187:199   */\n      revert\n        /* \"#utility.yul\":211:328   */\n    tag_59:\n        /* \"#utility.yul\":320:321   */\n      0x00\n        /* \"#utility.yul\":317:318   */\n      dup1\n        /* \"#utility.yul\":310:322   */\n      revert\n        /* \"#utility.yul\":334:411   */\n    tag_60:\n        /* \"#utility.yul\":371:378   */\n      0x00\n        /* \"#utility.yul\":400:405   */\n      dup2\n        /* \"#utility.yul\":389:405   */\n      swap1\n      pop\n        /* \"#utility.yul\":334:411   */\n      swap2\n      swap1\n      pop\n      jump\t// out\n        /* \"#utility.yul\":417:539   */\n    tag_61:\n        /* \"#utility.yul\":490:514   */\n      tag_103\n        /* \"#utility.yul\":508:513   */\n      dup2\n        /* \"#utility.yul\":490:514   */\n      tag_60\n      jump\t// in\n    tag_103:\n        /* \"#utility.yul\":483:488   */\n      dup2\n        /* \"#utility.yul\":480:515   */\n      eq\n        /* \"#utility.yul\":470:533   */\n      tag_104\n      jumpi\n        /* \"#utility.yul\":529:530   */\n      0x00\n        /* \"#utility.yul\":526:527   */\n      dup1\n        /* \"#utility.yul\":519:531   */\n      revert\n        /* \"#utility.yul\":470:533   */\n    tag_104:\n        /* \"#utility.yul\":417:539   */\n      pop\n      jump\t// out\n        /* \"#utility.yul\":545:684   */\n    tag_62:\n        /* \"#utility.yul\":591:596   */\n      0x00\n        /* \"#utility.yul\":629:635   */\n      dup2\n        /* \"#utility.yul\":616:636   */\n      calldataload\n        /* \"#utility.yul\":607:636   */\n      swap1\n      pop\n        /* \"#utility.yul\":645:678   */\n      tag_106\n        /* \"#utility.yul\":672:677   */\n      dup2\n        /* \"#utility.yul\":645:678   */\n      tag_61\n      jump\t// in\n    tag_106:\n        /* \"#utility.yul\":545:684   */\n      swap3\n      swap2\n      pop\n      pop\n      jump\t// out\n        /* \"#utility.yul\":690:807   */\n    tag_63:\n        /* \"#utility.yul\":799:800   */\n      0x00\n        /* \"#utility.yul\":796:797   */\n      dup1\n        /* \"#utility.yul\":789:801   */\n      revert\n        /* \"#utility.yul\":813:930   */\n    tag_64:\n        /* \"#utility.yul\":922:923   */\n      0x00\n        /* \"#utility.yul\":919:920   */\n      dup1\n        /* \"#utility.yul\":912:924   */\n      revert\n        /* \"#utility.yul\":936:1038   */\n    tag_65:\n        /* \"#utility.yul\":977:983   */\n      0x00\n        /* \"#utility.yul\":1028:1030   */\n      0x1f\n        /* \"#utility.yul\":1024:1031   */\n      not\n        /* \"#utility.yul\":1019:1021   */\n      0x1f\n        /* \"#utility.yul\":1012:1017   */\n      dup4\n        /* \"#utility.yul\":1008:1022   */\n      add\n        /* \"#utility.yul\":1004:1032   */\n      and\n        /* \"#utility.yul\":994:1032   */\n      swap1\n      pop\n        /* \"#utility.yul\":936:1038   */\n      swap2\n      swap1\n      pop\n      jump\t// out\n        /* \"#utility.yul\":1044:1224   */\n    tag_66:\n        /* \"#utility.yul\":1092:1169   */\n      0x4e487b7100000000000000000000000000000000000000000000000000000000\n        /* \"#utility.yul\":1089:1090   */\n      0x00\n        /* \"#utility.yul\":1082:1170   */\n      mstore\n        /* \"#utility.yul\":1189:1193   */\n      0x41\n        /* \"#utility.yul\":1186:1187   */\n      0x04\n        /* \"#utility.yul\":1179:1194   */\n      mstore\n        /* \"#utility.yul\":1213:1217   */\n      0x24\n        /* \"#utility.yul\":1210:1211   */\n      0x00\n        /* \"#utility.yul\":1203:1218   */\n      revert\n        /* \"#utility.yul\":1230:1511   */\n    tag_67:\n        /* \"#utility.yul\":1313:1340   */\n      tag_112\n        /* \"#utility.yul\":1335:1339   */\n      dup3\n        /* \"#utility.yul\":1313:1340   */\n      tag_65\n      jump\t// in\n    tag_112:\n        /* \"#utility.yul\":1305:1311   */\n      dup2\n        /* \"#utility.yul\":1301:1341   */\n      add\n        /* \"#utility.yul\":1443:1449   */\n      dup2\n        /* \"#utility.yul\":1431:1441   */\n      dup2\n        /* \"#utility.yul\":1428:1450   */\n      lt\n        /* \"#utility.yul\":1407:1425   */\n      0xffffffffffffffff\n        /* \"#utility.yul\":1395:1405   */\n      dup3\n        /* \"#utility.yul\":1392:1426   */\n      gt\n        /* \"#utility.yul\":1389:1451   */\n      or\n        /* \"#utility.yul\":1386:1474   */\n      iszero\n      tag_113\n      jumpi\n        /* \"#utility.yul\":1454:1472   */\n      tag_114\n      tag_66\n      jump\t// in\n    tag_114:\n        /* \"#utility.yul\":1386:1474   */\n    tag_113:\n        /* \"#utility.yul\":1494:1504   */\n      dup1\n        /* \"#utility.yul\":1490:1492   */\n      0x40\n        /* \"#utility.yul\":1483:1505   */\n      mstore\n        /* \"#utility.yul\":1273:1511   */\n      pop\n        /* \"#utility.yul\":1230:1511   */\n      pop\n      pop\n      jump\t// out\n        /* \"#utility.yul\":1517:1646   */\n    tag_68:\n        /* \"#utility.yul\":1551:1557   */\n      0x00\n        /* \"#utility.yul\":1578:1598   */\n      tag_116\n      tag_57\n      jump\t// in\n    tag_116:\n        /* \"#utility.yul\":1568:1598   */\n      swap1\n      pop\n        /* \"#utility.yul\":1607:1640   */\n      tag_117\n        /* \"#utility.yul\":1635:1639   */\n      dup3\n        /* \"#utility.yul\":1627:1633   */\n      dup3\n        /* \"#utility.yul\":1607:1640   */\n      tag_67\n      jump\t// in\n    tag_117:\n        /* \"#utility.yul\":1517:1646   */\n      swap2\n      swap1\n      pop\n      jump\t// out\n        /* \"#utility.yul\":1652:1959   */\n    tag_69:\n        /* \"#utility.yul\":1713:1717   */\n      0x00\n        /* \"#utility.yul\":1803:1821   */\n      0xffffffffffffffff\n        /* \"#utility.yul\":1795:1801   */\n      dup3\n        /* \"#utility.yul\":1792:1822   */\n      gt\n        /* \"#utility.yul\":1789:1845   */\n      iszero\n      tag_119\n      jumpi\n        /* \"#utility.yul\":1825:1843   */\n      tag_120\n      tag_66\n      jump\t// in\n    tag_120:\n        /* \"#utility.yul\":1789:1845   */\n    tag_119:\n        /* \"#utility.yul\":1863:1892   */\n      tag_121\n        /* \"#utility.yul\":1885:1891   */\n      dup3\n        /* \"#utility.yul\":1863:1892   */\n      tag_65\n      jump\t// in\n    tag_121:\n        /* \"#utility.yul\":1855:1892   */\n      swap1\n      pop\n        /* \"#utility.yul\":1947:1951   */\n      0x20\n        /* \"#utility.yul\":1941:1945   */\n      dup2\n        /* \"#utility.yul\":1937:1952   */\n      add\n        /* \"#utility.yul\":1929:1952   */\n      swap1\n      pop\n        /* \"#utility.yul\":1652:1959   */\n      swap2\n      swap1\n      pop\n      jump\t// out\n        /* \"#utility.yul\":1965:2111   */\n    tag_70:\n        /* \"#utility.yul\":2062:2068   */\n      dup3\n        /* \"#utility.yul\":2057:2060   */\n      dup2\n        /* \"#utility.yul\":2052:2055   */\n      dup4\n        /* \"#utility.yul\":2039:2069   */\n      calldatacopy\n        /* \"#utility.yul\":2103:2104   */\n      0x00\n        /* \"#utility.yul\":2094:2100   */\n      dup4\n        /* \"#utility.yul\":2089:2092   */\n      dup4\n        /* \"#utility.yul\":2085:2101   */\n      add\n        /* \"#utility.yul\":2078:2105   */\n      mstore\n        /* \"#utility.yul\":1965:2111   */\n      pop\n      pop\n      pop\n      jump\t// out\n        /* \"#utility.yul\":2117:2540   */\n    tag_71:\n        /* \"#utility.yul\":2194:2199   */\n      0x00\n        /* \"#utility.yul\":2219:2284   */\n      tag_124\n        /* \"#utility.yul\":2235:2283   */\n      tag_125\n        /* \"#utility.yul\":2276:2282   */\n      dup5\n        /* \"#utility.yul\":2235:2283   */\n      tag_69\n      jump\t// in\n    tag_125:\n        /* \"#utility.yul\":2219:2284   */\n      tag_68\n      jump\t// in\n    tag_124:\n        /* \"#utility.yul\":2210:2284   */\n      swap1\n      pop\n        /* \"#utility.yul\":2307:2313   */\n      dup3\n        /* \"#utility.yul\":2300:2305   */\n      dup2\n        /* \"#utility.yul\":2293:2314   */\n      mstore\n        /* \"#utility.yul\":2345:2349   */\n      0x20\n        /* \"#utility.yul\":2338:2343   */\n      dup2\n        /* \"#utility.yul\":2334:2350   */\n      add\n        /* \"#utility.yul\":2383:2386   */\n      dup5\n        /* \"#utility.yul\":2374:2380   */\n      dup5\n        /* \"#utility.yul\":2369:2372   */\n      dup5\n        /* \"#utility.yul\":2365:2381   */\n      add\n        /* \"#utility.yul\":2362:2387   */\n      gt\n        /* \"#utility.yul\":2359:2471   */\n      iszero\n      tag_126\n      jumpi\n        /* \"#utility.yul\":2390:2469   */\n      tag_127\n      tag_64\n      jump\t// in\n    tag_127:\n        /* \"#utility.yul\":2359:2471   */\n    tag_126:\n        /* \"#utility.yul\":2480:2534   */\n      tag_128\n        /* \"#utility.yul\":2527:2533   */\n      dup5\n        /* \"#utility.yul\":2522:2525   */\n      dup3\n        /* \"#utility.yul\":2517:2520   */\n      dup6\n        /* \"#utility.yul\":2480:2534   */\n      tag_70\n      jump\t// in\n    tag_128:\n        /* \"#utility.yul\":2200:2540   */\n      pop\n        /* \"#utility.yul\":2117:2540   */\n      swap4\n      swap3\n      pop\n      pop\n      pop\n      jump\t// out\n        /* \"#utility.yul\":2559:2897   */\n    tag_72:\n        /* \"#utility.yul\":2614:2619   */\n      0x00\n        /* \"#utility.yul\":2663:2666   */\n      dup3\n        /* \"#utility.yul\":2656:2660   */\n      0x1f\n        /* \"#utility.yul\":2648:2654   */\n      dup4\n        /* \"#utility.yul\":2644:2661   */\n      add\n        /* \"#utility.yul\":2640:2667   */\n      slt\n        /* \"#utility.yul\":2630:2752   */\n      tag_130\n      jumpi\n        /* \"#utility.yul\":2671:2750   */\n      tag_131\n      tag_63\n      jump\t// in\n    tag_131:\n        /* \"#utility.yul\":2630:2752   */\n    tag_130:\n        /* \"#utility.yul\":2788:2794   */\n      dup2\n        /* \"#utility.yul\":2775:2795   */\n      calldataload\n        /* \"#utility.yul\":2813:2891   */\n      tag_132\n        /* \"#utility.yul\":2887:2890   */\n      dup5\n        /* \"#utility.yul\":2879:2885   */\n      dup3\n        /* \"#utility.yul\":2872:2876   */\n      0x20\n        /* \"#utility.yul\":2864:2870   */\n      dup7\n        /* \"#utility.yul\":2860:2877   */\n      add\n        /* \"#utility.yul\":2813:2891   */\n      tag_71\n      jump\t// in\n    tag_132:\n        /* \"#utility.yul\":2804:2891   */\n      swap2\n      pop\n        /* \"#utility.yul\":2620:2897   */\n      pop\n        /* \"#utility.yul\":2559:2897   */\n      swap3\n      swap2\n      pop\n      pop\n      jump\t// out\n        /* \"#utility.yul\":2903:3555   */\n    tag_10:\n        /* \"#utility.yul\":2980:2986   */\n      0x00\n        /* \"#utility.yul\":2988:2994   */\n      dup1\n        /* \"#utility.yul\":3037:3039   */\n      0x40\n        /* \"#utility.yul\":3025:3034   */\n      dup4\n        /* \"#utility.yul\":3016:3023   */\n      dup6\n        /* \"#utility.yul\":3012:3035   */\n      sub\n        /* \"#utility.yul\":3008:3040   */\n      slt\n        /* \"#utility.yul\":3005:3124   */\n      iszero\n      tag_134\n      jumpi\n        /* \"#utility.yul\":3043:3122   */\n      tag_135\n      tag_58\n      jump\t// in\n    tag_135:\n        /* \"#utility.yul\":3005:3124   */\n    tag_134:\n        /* \"#utility.yul\":3163:3164   */\n      0x00\n        /* \"#utility.yul\":3188:3241   */\n      tag_136\n        /* \"#utility.yul\":3233:3240   */\n      dup6\n        /* \"#utility.yul\":3224:3230   */\n      dup3\n        /* \"#utility.yul\":3213:3222   */\n      dup7\n        /* \"#utility.yul\":3209:3231   */\n      add\n        /* \"#utility.yul\":3188:3241   */\n      tag_62\n      jump\t// in\n    tag_136:\n        /* \"#utility.yul\":3178:3241   */\n      swap3\n      pop\n        /* \"#utility.yul\":3134:3251   */\n      pop\n        /* \"#utility.yul\":3318:3320   */\n      0x20\n        /* \"#utility.yul\":3307:3316   */\n      dup4\n        /* \"#utility.yul\":3303:3321   */\n      add\n        /* \"#utility.yul\":3290:3322   */\n      calldataload\n        /* \"#utility.yul\":3349:3367   */\n      0xffffffffffffffff\n        /* \"#utility.yul\":3341:3347   */\n      dup2\n        /* \"#utility.yul\":3338:3368   */\n      gt\n        /* \"#utility.yul\":3335:3452   */\n      iszero\n      tag_137\n      jumpi\n        /* \"#utility.yul\":3371:3450   */\n      tag_138\n      tag_59\n      jump\t// in\n    tag_138:\n        /* \"#utility.yul\":3335:3452   */\n    tag_137:\n        /* \"#utility.yul\":3476:3538   */\n      tag_139\n        /* \"#utility.yul\":3530:3537   */\n      dup6\n        /* \"#utility.yul\":3521:3527   */\n      dup3\n        /* \"#utility.yul\":3510:3519   */\n      dup7\n        /* \"#utility.yul\":3506:3528   */\n      add\n        /* \"#utility.yul\":3476:3538   */\n      tag_72\n      jump\t// in\n    tag_139:\n        /* \"#utility.yul\":3466:3538   */\n      swap2\n      pop\n        /* \"#utility.yul\":3261:3548   */\n      pop\n        /* \"#utility.yul\":2903:3555   */\n      swap3\n      pop\n      swap3\n      swap1\n      pop\n      jump\t// out\n        /* \"#utility.yul\":3561:3687   */\n    tag_73:\n        /* \"#utility.yul\":3598:3605   */\n      0x00\n        /* \"#utility.yul\":3638:3680   */\n      0xffffffffffffffffffffffffffffffffffffffff\n        /* \"#utility.yul\":3631:3636   */\n      dup3\n        /* \"#utility.yul\":3627:3681   */\n      and\n        /* \"#utility.yul\":3616:3681   */\n      swap1\n      pop\n        /* \"#utility.yul\":3561:3687   */\n      swap2\n      swap1\n      pop\n      jump\t// out\n        /* \"#utility.yul\":3693:3789   */\n    tag_74:\n        /* \"#utility.yul\":3730:3737   */\n      0x00\n        /* \"#utility.yul\":3759:3783   */\n      tag_142\n        /* \"#utility.yul\":3777:3782   */\n      dup3\n        /* \"#utility.yul\":3759:3783   */\n      tag_73\n      jump\t// in\n    tag_142:\n        /* \"#utility.yul\":3748:3783   */\n      swap1\n      pop\n        /* \"#utility.yul\":3693:3789   */\n      swap2\n      swap1\n      pop\n      jump\t// out\n        /* \"#utility.yul\":3795:3913   */\n    tag_75:\n        /* \"#utility.yul\":3882:3906   */\n      tag_144\n        /* \"#utility.yul\":3900:3905   */\n      dup2\n        /* \"#utility.yul\":3882:3906   */\n      tag_74\n      jump\t// in\n    tag_144:\n        /* \"#utility.yul\":3877:3880   */\n      dup3\n        /* \"#utility.yul\":3870:3907   */\n      mstore\n        /* \"#utility.yul\":3795:3913   */\n      pop\n      pop\n      jump\t// out\n        /* \"#utility.yul\":3919:4141   */\n    tag_13:\n        /* \"#utility.yul\":4012:4016   */\n      0x00\n        /* \"#utility.yul\":4050:4052   */\n      0x20\n        /* \"#utility.yul\":4039:4048   */\n      dup3\n        /* \"#utility.yul\":4035:4053   */\n      add\n        /* \"#utility.yul\":4027:4053   */\n      swap1\n      pop\n        /* \"#utility.yul\":4063:4134   */\n      tag_146\n        /* \"#utility.yul\":4131:4132   */\n      0x00\n        /* \"#utility.yul\":4120:4129   */\n      dup4\n        /* \"#utility.yul\":4116:4133   */\n      add\n        /* \"#utility.yul\":4107:4113   */\n      dup5\n        /* \"#utility.yul\":4063:4134   */\n      tag_75\n      jump\t// in\n    tag_146:\n        /* \"#utility.yul\":3919:4141   */\n      swap3\n      swap2\n      pop\n      pop\n      jump\t// out\n        /* \"#utility.yul\":4147:4269   */\n    tag_76:\n        /* \"#utility.yul\":4220:4244   */\n      tag_148\n        /* \"#utility.yul\":4238:4243   */\n      dup2\n        /* \"#utility.yul\":4220:4244   */\n      tag_74\n      jump\t// in\n    tag_148:\n        /* \"#utility.yul\":4213:4218   */\n      dup2\n        /* \"#utility.yul\":4210:4245   */\n      eq\n        /* \"#utility.yul\":4200:4263   */\n      tag_149\n      jumpi\n        /* \"#utility.yul\":4259:4260   */\n      0x00\n        /* \"#utility.yul\":4256:4257   */\n      dup1\n        /* \"#utility.yul\":4249:4261   */\n      revert\n        /* \"#utility.yul\":4200:4263   */\n    tag_149:\n        /* \"#utility.yul\":4147:4269   */\n      pop\n      jump\t// out\n        /* \"#utility.yul\":4275:4414   */\n    tag_77:\n        /* \"#utility.yul\":4321:4326   */\n      0x00\n        /* \"#utility.yul\":4359:4365   */\n      dup2\n        /* \"#utility.yul\":4346:4366   */\n      calldataload\n        /* \"#utility.yul\":4337:4366   */\n      swap1\n      pop\n        /* \"#utility.yul\":4375:4408   */\n      tag_151\n        /* \"#utility.yul\":4402:4407   */\n      dup2\n        /* \"#utility.yul\":4375:4408   */\n      tag_76\n      jump\t// in\n    tag_151:\n        /* \"#utility.yul\":4275:4414   */\n      swap3\n      swap2\n      pop\n      pop\n      jump\t// out\n        /* \"#utility.yul\":4420:4728   */\n    tag_78:\n        /* \"#utility.yul\":4482:4486   */\n      0x00\n        /* \"#utility.yul\":4572:4590   */\n      0xffffffffffffffff\n        /* \"#utility.yul\":4564:4570   */\n      dup3\n        /* \"#utility.yul\":4561:4591   */\n      gt\n        /* \"#utility.yul\":4558:4614   */\n      iszero\n      tag_153\n      jumpi\n        /* \"#utility.yul\":4594:4612   */\n      tag_154\n      tag_66\n      jump\t// in\n    tag_154:\n        /* \"#utility.yul\":4558:4614   */\n    tag_153:\n        /* \"#utility.yul\":4632:4661   */\n      tag_155\n        /* \"#utility.yul\":4654:4660   */\n      dup3\n        /* \"#utility.yul\":4632:4661   */\n      tag_65\n      jump\t// in\n    tag_155:\n        /* \"#utility.yul\":4624:4661   */\n      swap1\n      pop\n        /* \"#utility.yul\":4716:4720   */\n      0x20\n        /* \"#utility.yul\":4710:4714   */\n      dup2\n        /* \"#utility.yul\":4706:4721   */\n      add\n        /* \"#utility.yul\":4698:4721   */\n      swap1\n      pop\n        /* \"#utility.yul\":4420:4728   */\n      swap2\n      swap1\n      pop\n      jump\t// out\n        /* \"#utility.yul\":4734:5159   */\n    tag_79:\n        /* \"#utility.yul\":4812:4817   */\n      0x00\n        /* \"#utility.yul\":4837:4903   */\n      tag_157\n        /* \"#utility.yul\":4853:4902   */\n      tag_158\n        /* \"#utility.yul\":4895:4901   */\n      dup5\n        /* \"#utility.yul\":4853:4902   */\n      tag_78\n      jump\t// in\n    tag_158:\n        /* \"#utility.yul\":4837:4903   */\n      tag_68\n      jump\t// in\n    tag_157:\n        /* \"#utility.yul\":4828:4903   */\n      swap1\n      pop\n        /* \"#utility.yul\":4926:4932   */\n      dup3\n        /* \"#utility.yul\":4919:4924   */\n      dup2\n        /* \"#utility.yul\":4912:4933   */\n      mstore\n        /* \"#utility.yul\":4964:4968   */\n      0x20\n        /* \"#utility.yul\":4957:4962   */\n      dup2\n        /* \"#utility.yul\":4953:4969   */\n      add\n        /* \"#utility.yul\":5002:5005   */\n      dup5\n        /* \"#utility.yul\":4993:4999   */\n      dup5\n        /* \"#utility.yul\":4988:4991   */\n      dup5\n        /* \"#utility.yul\":4984:5000   */\n      add\n        /* \"#utility.yul\":4981:5006   */\n      gt\n        /* \"#utility.yul\":4978:5090   */\n      iszero\n      tag_159\n      jumpi\n        /* \"#utility.yul\":5009:5088   */\n      tag_160\n      tag_64\n      jump\t// in\n    tag_160:\n        /* \"#utility.yul\":4978:5090   */\n    tag_159:\n        /* \"#utility.yul\":5099:5153   */\n      tag_161\n        /* \"#utility.yul\":5146:5152   */\n      dup5\n        /* \"#utility.yul\":5141:5144   */\n      dup3\n        /* \"#utility.yul\":5136:5139   */\n      dup6\n        /* \"#utility.yul\":5099:5153   */\n      tag_70\n      jump\t// in\n    tag_161:\n        /* \"#utility.yul\":4818:5159   */\n      pop\n        /* \"#utility.yul\":4734:5159   */\n      swap4\n      swap3\n      pop\n      pop\n      pop\n      jump\t// out\n        /* \"#utility.yul\":5179:5519   */\n    tag_80:\n        /* \"#utility.yul\":5235:5240   */\n      0x00\n        /* \"#utility.yul\":5284:5287   */\n      dup3\n        /* \"#utility.yul\":5277:5281   */\n      0x1f\n        /* \"#utility.yul\":5269:5275   */\n      dup4\n        /* \"#utility.yul\":5265:5282   */\n      add\n        /* \"#utility.yul\":5261:5288   */\n      slt\n        /* \"#utility.yul\":5251:5373   */\n      tag_163\n      jumpi\n        /* \"#utility.yul\":5292:5371   */\n      tag_164\n      tag_63\n      jump\t// in\n    tag_164:\n        /* \"#utility.yul\":5251:5373   */\n    tag_163:\n        /* \"#utility.yul\":5409:5415   */\n      dup2\n        /* \"#utility.yul\":5396:5416   */\n      calldataload\n        /* \"#utility.yul\":5434:5513   */\n      tag_165\n        /* \"#utility.yul\":5509:5512   */\n      dup5\n        /* \"#utility.yul\":5501:5507   */\n      dup3\n        /* \"#utility.yul\":5494:5498   */\n      0x20\n        /* \"#utility.yul\":5486:5492   */\n      dup7\n        /* \"#utility.yul\":5482:5499   */\n      add\n        /* \"#utility.yul\":5434:5513   */\n      tag_79\n      jump\t// in\n    tag_165:\n        /* \"#utility.yul\":5425:5513   */\n      swap2\n      pop\n        /* \"#utility.yul\":5241:5519   */\n      pop\n        /* \"#utility.yul\":5179:5519   */\n      swap3\n      swap2\n      pop\n      pop\n      jump\t// out\n        /* \"#utility.yul\":5525:6502   */\n    tag_16:\n        /* \"#utility.yul\":5621:5627   */\n      0x00\n        /* \"#utility.yul\":5629:5635   */\n      dup1\n        /* \"#utility.yul\":5637:5643   */\n      0x00\n        /* \"#utility.yul\":5686:5688   */\n      0x60\n        /* \"#utility.yul\":5674:5683   */\n      dup5\n        /* \"#utility.yul\":5665:5672   */\n      dup7\n        /* \"#utility.yul\":5661:5684   */\n      sub\n        /* \"#utility.yul\":5657:5689   */\n      slt\n        /* \"#utility.yul\":5654:5773   */\n      iszero\n      tag_167\n      jumpi\n        /* \"#utility.yul\":5692:5771   */\n      tag_168\n      tag_58\n      jump\t// in\n    tag_168:\n        /* \"#utility.yul\":5654:5773   */\n    tag_167:\n        /* \"#utility.yul\":5812:5813   */\n      0x00\n        /* \"#utility.yul\":5837:5890   */\n      tag_169\n        /* \"#utility.yul\":5882:5889   */\n      dup7\n        /* \"#utility.yul\":5873:5879   */\n      dup3\n        /* \"#utility.yul\":5862:5871   */\n      dup8\n        /* \"#utility.yul\":5858:5880   */\n      add\n        /* \"#utility.yul\":5837:5890   */\n      tag_77\n      jump\t// in\n    tag_169:\n        /* \"#utility.yul\":5827:5890   */\n      swap4\n      pop\n        /* \"#utility.yul\":5783:5900   */\n      pop\n        /* \"#utility.yul\":5967:5969   */\n      0x20\n        /* \"#utility.yul\":5956:5965   */\n      dup5\n        /* \"#utility.yul\":5952:5970   */\n      add\n        /* \"#utility.yul\":5939:5971   */\n      calldataload\n        /* \"#utility.yul\":5998:6016   */\n      0xffffffffffffffff\n        /* \"#utility.yul\":5990:5996   */\n      dup2\n        /* \"#utility.yul\":5987:6017   */\n      gt\n        /* \"#utility.yul\":5984:6101   */\n      iszero\n      tag_170\n      jumpi\n        /* \"#utility.yul\":6020:6099   */\n      tag_171\n      tag_59\n      jump\t// in\n    tag_171:\n        /* \"#utility.yul\":5984:6101   */\n    tag_170:\n        /* \"#utility.yul\":6125:6188   */\n      tag_172\n        /* \"#utility.yul\":6180:6187   */\n      dup7\n        /* \"#utility.yul\":6171:6177   */\n      dup3\n        /* \"#utility.yul\":6160:6169   */\n      dup8\n        /* \"#utility.yul\":6156:6178   */\n      add\n        /* \"#utility.yul\":6125:6188   */\n      tag_80\n      jump\t// in\n    tag_172:\n        /* \"#utility.yul\":6115:6188   */\n      swap3\n      pop\n        /* \"#utility.yul\":5910:6198   */\n      pop\n        /* \"#utility.yul\":6265:6267   */\n      0x40\n        /* \"#utility.yul\":6254:6263   */\n      dup5\n        /* \"#utility.yul\":6250:6268   */\n      add\n        /* \"#utility.yul\":6237:6269   */\n      calldataload\n        /* \"#utility.yul\":6296:6314   */\n      0xffffffffffffffff\n        /* \"#utility.yul\":6288:6294   */\n      dup2\n        /* \"#utility.yul\":6285:6315   */\n      gt\n        /* \"#utility.yul\":6282:6399   */\n      iszero\n      tag_173\n      jumpi\n        /* \"#utility.yul\":6318:6397   */\n      tag_174\n      tag_59\n      jump\t// in\n    tag_174:\n        /* \"#utility.yul\":6282:6399   */\n    tag_173:\n        /* \"#utility.yul\":6423:6485   */\n      tag_175\n        /* \"#utility.yul\":6477:6484   */\n      dup7\n        /* \"#utility.yul\":6468:6474   */\n      dup3\n        /* \"#utility.yul\":6457:6466   */\n      dup8\n        /* \"#utility.yul\":6453:6475   */\n      add\n        /* \"#utility.yul\":6423:6485   */\n      tag_72\n      jump\t// in\n    tag_175:\n        /* \"#utility.yul\":6413:6485   */\n      swap2\n      pop\n        /* \"#utility.yul\":6208:6495   */\n      pop\n        /* \"#utility.yul\":5525:6502   */\n      swap3\n      pop\n      swap3\n      pop\n      swap3\n      jump\t// out\n        /* \"#utility.yul\":6508:6598   */\n    tag_81:\n        /* \"#utility.yul\":6542:6549   */\n      0x00\n        /* \"#utility.yul\":6585:6590   */\n      dup2\n        /* \"#utility.yul\":6578:6591   */\n      iszero\n        /* \"#utility.yul\":6571:6592   */\n      iszero\n        /* \"#utility.yul\":6560:6592   */\n      swap1\n      pop\n        /* \"#utility.yul\":6508:6598   */\n      swap2\n      swap1\n      pop\n      jump\t// out\n        /* \"#utility.yul\":6604:6713   */\n    tag_82:\n        /* \"#utility.yul\":6685:6706   */\n      tag_178\n        /* \"#utility.yul\":6700:6705   */\n      dup2\n        /* \"#utility.yul\":6685:6706   */\n      tag_81\n      jump\t// in\n    tag_178:\n        /* \"#utility.yul\":6680:6683   */\n      dup3\n        /* \"#utility.yul\":6673:6707   */\n      mstore\n        /* \"#utility.yul\":6604:6713   */\n      pop\n      pop\n      jump\t// out\n        /* \"#utility.yul\":6719:6929   */\n    tag_19:\n        /* \"#utility.yul\":6806:6810   */\n      0x00\n        /* \"#utility.yul\":6844:6846   */\n      0x20\n        /* \"#utility.yul\":6833:6842   */\n      dup3\n        /* \"#utility.yul\":6829:6847   */\n      add\n        /* \"#utility.yul\":6821:6847   */\n      swap1\n      pop\n        /* \"#utility.yul\":6857:6922   */\n      tag_180\n        /* \"#utility.yul\":6919:6920   */\n      0x00\n        /* \"#utility.yul\":6908:6917   */\n      dup4\n        /* \"#utility.yul\":6904:6921   */\n      add\n        /* \"#utility.yul\":6895:6901   */\n      dup5\n        /* \"#utility.yul\":6857:6922   */\n      tag_82\n      jump\t// in\n    tag_180:\n        /* \"#utility.yul\":6719:6929   */\n      swap3\n      swap2\n      pop\n      pop\n      jump\t// out\n        /* \"#utility.yul\":6935:7442   */\n    tag_22:\n        /* \"#utility.yul\":7003:7009   */\n      0x00\n        /* \"#utility.yul\":7052:7054   */\n      0x20\n        /* \"#utility.yul\":7040:7049   */\n      dup3\n        /* \"#utility.yul\":7031:7038   */\n      dup5\n        /* \"#utility.yul\":7027:7050   */\n      sub\n        /* \"#utility.yul\":7023:7055   */\n      slt\n        /* \"#utility.yul\":7020:7139   */\n      iszero\n      tag_182\n      jumpi\n        /* \"#utility.yul\":7058:7137   */\n      tag_183\n      tag_58\n      jump\t// in\n    tag_183:\n        /* \"#utility.yul\":7020:7139   */\n    tag_182:\n        /* \"#utility.yul\":7206:7207   */\n      0x00\n        /* \"#utility.yul\":7195:7204   */\n      dup3\n        /* \"#utility.yul\":7191:7208   */\n      add\n        /* \"#utility.yul\":7178:7209   */\n      calldataload\n        /* \"#utility.yul\":7236:7254   */\n      0xffffffffffffffff\n        /* \"#utility.yul\":7228:7234   */\n      dup2\n        /* \"#utility.yul\":7225:7255   */\n      gt\n        /* \"#utility.yul\":7222:7339   */\n      iszero\n      tag_184\n      jumpi\n        /* \"#utility.yul\":7258:7337   */\n      tag_185\n      tag_59\n      jump\t// in\n    tag_185:\n        /* \"#utility.yul\":7222:7339   */\n    tag_184:\n        /* \"#utility.yul\":7363:7425   */\n      tag_186\n        /* \"#utility.yul\":7417:7424   */\n      dup5\n        /* \"#utility.yul\":7408:7414   */\n      dup3\n        /* \"#utility.yul\":7397:7406   */\n      dup6\n        /* \"#utility.yul\":7393:7415   */\n      add\n        /* \"#utility.yul\":7363:7425   */\n      tag_72\n      jump\t// in\n    tag_186:\n        /* \"#utility.yul\":7353:7425   */\n      swap2\n      pop\n        /* \"#utility.yul\":7149:7435   */\n      pop\n        /* \"#utility.yul\":6935:7442   */\n      swap3\n      swap2\n      pop\n      pop\n      jump\t// out\n        /* \"#utility.yul\":7448:7566   */\n    tag_83:\n        /* \"#utility.yul\":7535:7559   */\n      tag_188\n        /* \"#utility.yul\":7553:7558   */\n      dup2\n        /* \"#utility.yul\":7535:7559   */\n      tag_60\n      jump\t// in\n    tag_188:\n        /* \"#utility.yul\":7530:7533   */\n      dup3\n        /* \"#utility.yul\":7523:7560   */\n      mstore\n        /* \"#utility.yul\":7448:7566   */\n      pop\n      pop\n      jump\t// out\n        /* \"#utility.yul\":7572:7658   */\n    tag_84:\n        /* \"#utility.yul\":7607:7614   */\n      0x00\n        /* \"#utility.yul\":7647:7651   */\n      0xff\n        /* \"#utility.yul\":7640:7645   */\n      dup3\n        /* \"#utility.yul\":7636:7652   */\n      and\n        /* \"#utility.yul\":7625:7652   */\n      swap1\n      pop\n        /* \"#utility.yul\":7572:7658   */\n      swap2\n      swap1\n      pop\n      jump\t// out\n        /* \"#utility.yul\":7664:7776   */\n    tag_85:\n        /* \"#utility.yul\":7747:7769   */\n      tag_191\n        /* \"#utility.yul\":7763:7768   */\n      dup2\n        /* \"#utility.yul\":7747:7769   */\n      tag_84\n      jump\t// in\n    tag_191:\n        /* \"#utility.yul\":7742:7745   */\n      dup3\n        /* \"#utility.yul\":7735:7770   */\n      mstore\n        /* \"#utility.yul\":7664:7776   */\n      pop\n      pop\n      jump\t// out\n        /* \"#utility.yul\":7782:8216   */\n    tag_25:\n        /* \"#utility.yul\":7927:7931   */\n      0x00\n        /* \"#utility.yul\":7965:7967   */\n      0x60\n        /* \"#utility.yul\":7954:7963   */\n      dup3\n        /* \"#utility.yul\":7950:7968   */\n      add\n        /* \"#utility.yul\":7942:7968   */\n      swap1\n      pop\n        /* \"#utility.yul\":7978:8049   */\n      tag_193\n        /* \"#utility.yul\":8046:8047   */\n      0x00\n        /* \"#utility.yul\":8035:8044   */\n      dup4\n        /* \"#utility.yul\":8031:8048   */\n      add\n        /* \"#utility.yul\":8022:8028   */\n      dup7\n        /* \"#utility.yul\":7978:8049   */\n      tag_83\n      jump\t// in\n    tag_193:\n        /* \"#utility.yul\":8059:8131   */\n      tag_194\n        /* \"#utility.yul\":8127:8129   */\n      0x20\n        /* \"#utility.yul\":8116:8125   */\n      dup4\n        /* \"#utility.yul\":8112:8130   */\n      add\n        /* \"#utility.yul\":8103:8109   */\n      dup6\n        /* \"#utility.yul\":8059:8131   */\n      tag_83\n      jump\t// in\n    tag_194:\n        /* \"#utility.yul\":8141:8209   */\n      tag_195\n        /* \"#utility.yul\":8205:8207   */\n      0x40\n        /* \"#utility.yul\":8194:8203   */\n      dup4\n        /* \"#utility.yul\":8190:8208   */\n      add\n        /* \"#utility.yul\":8181:8187   */\n      dup5\n        /* \"#utility.yul\":8141:8209   */\n      tag_85\n      jump\t// in\n    tag_195:\n        /* \"#utility.yul\":7782:8216   */\n      swap5\n      swap4\n      pop\n      pop\n      pop\n      pop\n      jump\t// out\n        /* \"#utility.yul\":8222:8731   */\n    tag_28:\n        /* \"#utility.yul\":8291:8297   */\n      0x00\n        /* \"#utility.yul\":8340:8342   */\n      0x20\n        /* \"#utility.yul\":8328:8337   */\n      dup3\n        /* \"#utility.yul\":8319:8326   */\n      dup5\n        /* \"#utility.yul\":8315:8338   */\n      sub\n        /* \"#utility.yul\":8311:8343   */\n      slt\n        /* \"#utility.yul\":8308:8427   */\n      iszero\n      tag_197\n      jumpi\n        /* \"#utility.yul\":8346:8425   */\n      tag_198\n      tag_58\n      jump\t// in\n    tag_198:\n        /* \"#utility.yul\":8308:8427   */\n    tag_197:\n        /* \"#utility.yul\":8494:8495   */\n      0x00\n        /* \"#utility.yul\":8483:8492   */\n      dup3\n        /* \"#utility.yul\":8479:8496   */\n      add\n        /* \"#utility.yul\":8466:8497   */\n      calldataload\n        /* \"#utility.yul\":8524:8542   */\n      0xffffffffffffffff\n        /* \"#utility.yul\":8516:8522   */\n      dup2\n        /* \"#utility.yul\":8513:8543   */\n      gt\n        /* \"#utility.yul\":8510:8627   */\n      iszero\n      tag_199\n      jumpi\n        /* \"#utility.yul\":8546:8625   */\n      tag_200\n      tag_59\n      jump\t// in\n    tag_200:\n        /* \"#utility.yul\":8510:8627   */\n    tag_199:\n        /* \"#utility.yul\":8651:8714   */\n      tag_201\n        /* \"#utility.yul\":8706:8713   */\n      dup5\n        /* \"#utility.yul\":8697:8703   */\n      dup3\n        /* \"#utility.yul\":8686:8695   */\n      dup6\n        /* \"#utility.yul\":8682:8704   */\n      add\n        /* \"#utility.yul\":8651:8714   */\n      tag_80\n      jump\t// in\n    tag_201:\n        /* \"#utility.yul\":8641:8714   */\n      swap2\n      pop\n        /* \"#utility.yul\":8437:8724   */\n      pop\n        /* \"#utility.yul\":8222:8731   */\n      swap3\n      swap2\n      pop\n      pop\n      jump\t// out\n        /* \"#utility.yul\":8737:8959   */\n    tag_31:\n        /* \"#utility.yul\":8830:8834   */\n      0x00\n        /* \"#utility.yul\":8868:8870   */\n      0x20\n        /* \"#utility.yul\":8857:8866   */\n      dup3\n        /* \"#utility.yul\":8853:8871   */\n      add\n        /* \"#utility.yul\":8845:8871   */\n      swap1\n      pop\n        /* \"#utility.yul\":8881:8952   */\n      tag_203\n        /* \"#utility.yul\":8949:8950   */\n      0x00\n        /* \"#utility.yul\":8938:8947   */\n      dup4\n        /* \"#utility.yul\":8934:8951   */\n      add\n        /* \"#utility.yul\":8925:8931   */\n      dup5\n        /* \"#utility.yul\":8881:8952   */\n      tag_83\n      jump\t// in\n    tag_203:\n        /* \"#utility.yul\":8737:8959   */\n      swap3\n      swap2\n      pop\n      pop\n      jump\t// out\n        /* \"#utility.yul\":8965:9294   */\n    tag_34:\n        /* \"#utility.yul\":9024:9030   */\n      0x00\n        /* \"#utility.yul\":9073:9075   */\n      0x20\n        /* \"#utility.yul\":9061:9070   */\n      dup3\n        /* \"#utility.yul\":9052:9059   */\n      dup5\n        /* \"#utility.yul\":9048:9071   */\n      sub\n        /* \"#utility.yul\":9044:9076   */\n      slt\n        /* \"#utility.yul\":9041:9160   */\n      iszero\n      tag_205\n      jumpi\n        /* \"#utility.yul\":9079:9158   */\n      tag_206\n      tag_58\n      jump\t// in\n    tag_206:\n        /* \"#utility.yul\":9041:9160   */\n    tag_205:\n        /* \"#utility.yul\":9199:9200   */\n      0x00\n        /* \"#utility.yul\":9224:9277   */\n      tag_207\n        /* \"#utility.yul\":9269:9276   */\n      dup5\n        /* \"#utility.yul\":9260:9266   */\n      dup3\n        /* \"#utility.yul\":9249:9258   */\n      dup6\n        /* \"#utility.yul\":9245:9267   */\n      add\n        /* \"#utility.yul\":9224:9277   */\n      tag_62\n      jump\t// in\n    tag_207:\n        /* \"#utility.yul\":9214:9277   */\n      swap2\n      pop\n        /* \"#utility.yul\":9170:9287   */\n      pop\n        /* \"#utility.yul\":8965:9294   */\n      swap3\n      swap2\n      pop\n      pop\n      jump\t// out\n        /* \"#utility.yul\":9300:9845   */\n    tag_40:\n        /* \"#utility.yul\":9473:9477   */\n      0x00\n        /* \"#utility.yul\":9511:9514   */\n      0x80\n        /* \"#utility.yul\":9500:9509   */\n      dup3\n        /* \"#utility.yul\":9496:9515   */\n      add\n        /* \"#utility.yul\":9488:9515   */\n      swap1\n      pop\n        /* \"#utility.yul\":9525:9596   */\n      tag_209\n        /* \"#utility.yul\":9593:9594   */\n      0x00\n        /* \"#utility.yul\":9582:9591   */\n      dup4\n        /* \"#utility.yul\":9578:9595   */\n      add\n        /* \"#utility.yul\":9569:9575   */\n      dup8\n        /* \"#utility.yul\":9525:9596   */\n      tag_83\n      jump\t// in\n    tag_209:\n        /* \"#utility.yul\":9606:9674   */\n      tag_210\n        /* \"#utility.yul\":9670:9672   */\n      0x20\n        /* \"#utility.yul\":9659:9668   */\n      dup4\n        /* \"#utility.yul\":9655:9673   */\n      add\n        /* \"#utility.yul\":9646:9652   */\n      dup7\n        /* \"#utility.yul\":9606:9674   */\n      tag_85\n      jump\t// in\n    tag_210:\n        /* \"#utility.yul\":9684:9756   */\n      tag_211\n        /* \"#utility.yul\":9752:9754   */\n      0x40\n        /* \"#utility.yul\":9741:9750   */\n      dup4\n        /* \"#utility.yul\":9737:9755   */\n      add\n        /* \"#utility.yul\":9728:9734   */\n      dup6\n        /* \"#utility.yul\":9684:9756   */\n      tag_83\n      jump\t// in\n    tag_211:\n        /* \"#utility.yul\":9766:9838   */\n      tag_212\n        /* \"#utility.yul\":9834:9836   */\n      0x60\n        /* \"#utility.yul\":9823:9832   */\n      dup4\n        /* \"#utility.yul\":9819:9837   */\n      add\n        /* \"#utility.yul\":9810:9816   */\n      dup5\n        /* \"#utility.yul\":9766:9838   */\n      tag_83\n      jump\t// in\n    tag_212:\n        /* \"#utility.yul\":9300:9845   */\n      swap6\n      swap5\n      pop\n      pop\n      pop\n      pop\n      pop\n      jump\t// out\n        /* \"#utility.yul\":9851:10020   */\n    tag_86:\n        /* \"#utility.yul\":9935:9946   */\n      0x00\n        /* \"#utility.yul\":9969:9975   */\n      dup3\n        /* \"#utility.yul\":9964:9967   */\n      dup3\n        /* \"#utility.yul\":9957:9976   */\n      mstore\n        /* \"#utility.yul\":10009:10013   */\n      0x20\n        /* \"#utility.yul\":10004:10007   */\n      dup3\n        /* \"#utility.yul\":10000:10014   */\n      add\n        /* \"#utility.yul\":9985:10014   */\n      swap1\n      pop\n        /* \"#utility.yul\":9851:10020   */\n      swap3\n      swap2\n      pop\n      pop\n      jump\t// out\n        /* \"#utility.yul\":10026:10198   */\n    tag_87:\n        /* \"#utility.yul\":10166:10190   */\n      0x696e76616c696420737472696e6720656e746572656400000000000000000000\n        /* \"#utility.yul\":10162:10163   */\n      0x00\n        /* \"#utility.yul\":10154:10160   */\n      dup3\n        /* \"#utility.yul\":10150:10164   */\n      add\n        /* \"#utility.yul\":10143:10191   */\n      mstore\n        /* \"#utility.yul\":10026:10198   */\n      pop\n      jump\t// out\n        /* \"#utility.yul\":10204:10570   */\n    tag_88:\n        /* \"#utility.yul\":10346:10349   */\n      0x00\n        /* \"#utility.yul\":10367:10434   */\n      tag_216\n        /* \"#utility.yul\":10431:10433   */\n      0x16\n        /* \"#utility.yul\":10426:10429   */\n      dup4\n        /* \"#utility.yul\":10367:10434   */\n      tag_86\n      jump\t// in\n    tag_216:\n        /* \"#utility.yul\":10360:10434   */\n      swap2\n      pop\n        /* \"#utility.yul\":10443:10536   */\n      tag_217\n        /* \"#utility.yul\":10532:10535   */\n      dup3\n        /* \"#utility.yul\":10443:10536   */\n      tag_87\n      jump\t// in\n    tag_217:\n        /* \"#utility.yul\":10561:10563   */\n      0x20\n        /* \"#utility.yul\":10556:10559   */\n      dup3\n        /* \"#utility.yul\":10552:10564   */\n      add\n        /* \"#utility.yul\":10545:10564   */\n      swap1\n      pop\n        /* \"#utility.yul\":10204:10570   */\n      swap2\n      swap1\n      pop\n      jump\t// out\n        /* \"#utility.yul\":10576:10995   */\n    tag_50:\n        /* \"#utility.yul\":10742:10746   */\n      0x00\n        /* \"#utility.yul\":10780:10782   */\n      0x20\n        /* \"#utility.yul\":10769:10778   */\n      dup3\n        /* \"#utility.yul\":10765:10783   */\n      add\n        /* \"#utility.yul\":10757:10783   */\n      swap1\n      pop\n        /* \"#utility.yul\":10829:10838   */\n      dup2\n        /* \"#utility.yul\":10823:10827   */\n      dup2\n        /* \"#utility.yul\":10819:10839   */\n      sub\n        /* \"#utility.yul\":10815:10816   */\n      0x00\n        /* \"#utility.yul\":10804:10813   */\n      dup4\n        /* \"#utility.yul\":10800:10817   */\n      add\n        /* \"#utility.yul\":10793:10840   */\n      mstore\n        /* \"#utility.yul\":10857:10988   */\n      tag_219\n        /* \"#utility.yul\":10983:10987   */\n      dup2\n        /* \"#utility.yul\":10857:10988   */\n      tag_88\n      jump\t// in\n    tag_219:\n        /* \"#utility.yul\":10849:10988   */\n      swap1\n      pop\n        /* \"#utility.yul\":10576:10995   */\n      swap2\n      swap1\n      pop\n      jump\t// out\n        /* \"#utility.yul\":11001:11100   */\n    tag_89:\n        /* \"#utility.yul\":11053:11059   */\n      0x00\n        /* \"#utility.yul\":11087:11092   */\n      dup2\n        /* \"#utility.yul\":11081:11093   */\n      mload\n        /* \"#utility.yul\":11071:11093   */\n      swap1\n      pop\n        /* \"#utility.yul\":11001:11100   */\n      swap2\n      swap1\n      pop\n      jump\t// out\n        /* \"#utility.yul\":11106:11254   */\n    tag_90:\n        /* \"#utility.yul\":11208:11219   */\n      0x00\n        /* \"#utility.yul\":11245:11248   */\n      dup2\n        /* \"#utility.yul\":11230:11248   */\n      swap1\n      pop\n        /* \"#utility.yul\":11106:11254   */\n      swap3\n      swap2\n      pop\n      pop\n      jump\t// out\n        /* \"#utility.yul\":11260:11506   */\n    tag_91:\n        /* \"#utility.yul\":11341:11342   */\n      0x00\n        /* \"#utility.yul\":11351:11464   */\n    tag_223:\n        /* \"#utility.yul\":11365:11371   */\n      dup4\n        /* \"#utility.yul\":11362:11363   */\n      dup2\n        /* \"#utility.yul\":11359:11372   */\n      lt\n        /* \"#utility.yul\":11351:11464   */\n      iszero\n      tag_225\n      jumpi\n        /* \"#utility.yul\":11450:11451   */\n      dup1\n        /* \"#utility.yul\":11445:11448   */\n      dup3\n        /* \"#utility.yul\":11441:11452   */\n      add\n        /* \"#utility.yul\":11435:11453   */\n      mload\n        /* \"#utility.yul\":11431:11432   */\n      dup2\n        /* \"#utility.yul\":11426:11429   */\n      dup5\n        /* \"#utility.yul\":11422:11433   */\n      add\n        /* \"#utility.yul\":11415:11454   */\n      mstore\n        /* \"#utility.yul\":11387:11389   */\n      0x20\n        /* \"#utility.yul\":11384:11385   */\n      dup2\n        /* \"#utility.yul\":11380:11390   */\n      add\n        /* \"#utility.yul\":11375:11390   */\n      swap1\n      pop\n        /* \"#utility.yul\":11351:11464   */\n      jump(tag_223)\n    tag_225:\n        /* \"#utility.yul\":11498:11499   */\n      0x00\n        /* \"#utility.yul\":11489:11495   */\n      dup5\n        /* \"#utility.yul\":11484:11487   */\n      dup5\n        /* \"#utility.yul\":11480:11496   */\n      add\n        /* \"#utility.yul\":11473:11500   */\n      mstore\n        /* \"#utility.yul\":11322:11506   */\n      pop\n        /* \"#utility.yul\":11260:11506   */\n      pop\n      pop\n      pop\n      jump\t// out\n        /* \"#utility.yul\":11512:11902   */\n    tag_92:\n        /* \"#utility.yul\":11618:11621   */\n      0x00\n        /* \"#utility.yul\":11646:11685   */\n      tag_227\n        /* \"#utility.yul\":11679:11684   */\n      dup3\n        /* \"#utility.yul\":11646:11685   */\n      tag_89\n      jump\t// in\n    tag_227:\n        /* \"#utility.yul\":11701:11790   */\n      tag_228\n        /* \"#utility.yul\":11783:11789   */\n      dup2\n        /* \"#utility.yul\":11778:11781   */\n      dup6\n        /* \"#utility.yul\":11701:11790   */\n      tag_90\n      jump\t// in\n    tag_228:\n        /* \"#utility.yul\":11694:11790   */\n      swap4\n      pop\n        /* \"#utility.yul\":11799:11864   */\n      tag_229\n        /* \"#utility.yul\":11857:11863   */\n      dup2\n        /* \"#utility.yul\":11852:11855   */\n      dup6\n        /* \"#utility.yul\":11845:11849   */\n      0x20\n        /* \"#utility.yul\":11838:11843   */\n      dup7\n        /* \"#utility.yul\":11834:11850   */\n      add\n        /* \"#utility.yul\":11799:11864   */\n      tag_91\n      jump\t// in\n    tag_229:\n        /* \"#utility.yul\":11889:11895   */\n      dup1\n        /* \"#utility.yul\":11884:11887   */\n      dup5\n        /* \"#utility.yul\":11880:11896   */\n      add\n        /* \"#utility.yul\":11873:11896   */\n      swap2\n      pop\n        /* \"#utility.yul\":11622:11902   */\n      pop\n        /* \"#utility.yul\":11512:11902   */\n      swap3\n      swap2\n      pop\n      pop\n      jump\t// out\n        /* \"#utility.yul\":11908:12183   */\n    tag_53:\n        /* \"#utility.yul\":12040:12043   */\n      0x00\n        /* \"#utility.yul\":12062:12157   */\n      tag_231\n        /* \"#utility.yul\":12153:12156   */\n      dup3\n        /* \"#utility.yul\":12144:12150   */\n      dup5\n        /* \"#utility.yul\":12062:12157   */\n      tag_92\n      jump\t// in\n    tag_231:\n        /* \"#utility.yul\":12055:12157   */\n      swap2\n      pop\n        /* \"#utility.yul\":12174:12177   */\n      dup2\n        /* \"#utility.yul\":12167:12177   */\n      swap1\n      pop\n        /* \"#utility.yul\":11908:12183   */\n      swap3\n      swap2\n      pop\n      pop\n      jump\t// out\n        /* \"#utility.yul\":12189:12403   */\n    tag_93:\n        /* \"#utility.yul\":12329:12395   */\n      0x19457468657265756d205369676e6564204d6573736167653a0a333200000000\n        /* \"#utility.yul\":12325:12326   */\n      0x00\n        /* \"#utility.yul\":12317:12323   */\n      dup3\n        /* \"#utility.yul\":12313:12327   */\n      add\n        /* \"#utility.yul\":12306:12396   */\n      mstore\n        /* \"#utility.yul\":12189:12403   */\n      pop\n      jump\t// out\n        /* \"#utility.yul\":12409:12811   */\n    tag_94:\n        /* \"#utility.yul\":12569:12572   */\n      0x00\n        /* \"#utility.yul\":12590:12675   */\n      tag_234\n        /* \"#utility.yul\":12672:12674   */\n      0x1c\n        /* \"#utility.yul\":12667:12670   */\n      dup4\n        /* \"#utility.yul\":12590:12675   */\n      tag_90\n      jump\t// in\n    tag_234:\n        /* \"#utility.yul\":12583:12675   */\n      swap2\n      pop\n        /* \"#utility.yul\":12684:12777   */\n      tag_235\n        /* \"#utility.yul\":12773:12776   */\n      dup3\n        /* \"#utility.yul\":12684:12777   */\n      tag_93\n      jump\t// in\n    tag_235:\n        /* \"#utility.yul\":12802:12804   */\n      0x1c\n        /* \"#utility.yul\":12797:12800   */\n      dup3\n        /* \"#utility.yul\":12793:12805   */\n      add\n        /* \"#utility.yul\":12786:12805   */\n      swap1\n      pop\n        /* \"#utility.yul\":12409:12811   */\n      swap2\n      swap1\n      pop\n      jump\t// out\n        /* \"#utility.yul\":12817:12896   */\n    tag_95:\n        /* \"#utility.yul\":12856:12863   */\n      0x00\n        /* \"#utility.yul\":12885:12890   */\n      dup2\n        /* \"#utility.yul\":12874:12890   */\n      swap1\n      pop\n        /* \"#utility.yul\":12817:12896   */\n      swap2\n      swap1\n      pop\n      jump\t// out\n        /* \"#utility.yul\":12902:13059   */\n    tag_96:\n        /* \"#utility.yul\":13007:13052   */\n      tag_238\n        /* \"#utility.yul\":13027:13051   */\n      tag_239\n        /* \"#utility.yul\":13045:13050   */\n      dup3\n        /* \"#utility.yul\":13027:13051   */\n      tag_60\n      jump\t// in\n    tag_239:\n        /* \"#utility.yul\":13007:13052   */\n      tag_95\n      jump\t// in\n    tag_238:\n        /* \"#utility.yul\":13002:13005   */\n      dup3\n        /* \"#utility.yul\":12995:13053   */\n      mstore\n        /* \"#utility.yul\":12902:13059   */\n      pop\n      pop\n      jump\t// out\n        /* \"#utility.yul\":13065:13587   */\n    tag_56:\n        /* \"#utility.yul\":13278:13281   */\n      0x00\n        /* \"#utility.yul\":13300:13448   */\n      tag_241\n        /* \"#utility.yul\":13444:13447   */\n      dup3\n        /* \"#utility.yul\":13300:13448   */\n      tag_94\n      jump\t// in\n    tag_241:\n        /* \"#utility.yul\":13293:13448   */\n      swap2\n      pop\n        /* \"#utility.yul\":13458:13533   */\n      tag_242\n        /* \"#utility.yul\":13529:13532   */\n      dup3\n        /* \"#utility.yul\":13520:13526   */\n      dup5\n        /* \"#utility.yul\":13458:13533   */\n      tag_96\n      jump\t// in\n    tag_242:\n        /* \"#utility.yul\":13558:13560   */\n      0x20\n        /* \"#utility.yul\":13553:13556   */\n      dup3\n        /* \"#utility.yul\":13549:13561   */\n      add\n        /* \"#utility.yul\":13542:13561   */\n      swap2\n      pop\n        /* \"#utility.yul\":13578:13581   */\n      dup2\n        /* \"#utility.yul\":13571:13581   */\n      swap1\n      pop\n        /* \"#utility.yul\":13065:13587   */\n      swap3\n      swap2\n      pop\n      pop\n      jump\t// out\n\n    auxdata: 0xa264697066735822122021417a92764c64b6480bb43f9784d3f50b5e842917d160be6581ec5096ed55b964736f6c63430008150033\n}\n",
				"bytecode": {
					"linkReferences": {},
					"object": "608060405234801561000f575f80fd5b506109bc8061001d5f395ff3fe608060405234801561000f575f80fd5b5060043610610055575f3560e01c806319045a25146100595780632dd34f0f1461008957806365d894e9146100b9578063b446f3b2146100eb578063fa5408011461011b575b5f80fd5b610073600480360381019061006e9190610454565b61014b565b60405161008091906104ed565b60405180910390f35b6100a3600480360381019061009e91906105ce565b6101b5565b6040516100b09190610670565b60405180910390f35b6100d360048036038101906100ce9190610689565b610211565b6040516100e2939291906106fa565b60405180910390f35b6101056004803603810190610100919061072f565b610276565b6040516101129190610776565b60405180910390f35b6101356004803603810190610130919061078f565b6102a5565b6040516101429190610776565b60405180910390f35b5f805f8061015885610211565b9250925092506001868285856040515f815260200160405260405161018094939291906107ba565b6020604051602081039080840390855afa1580156101a0573d5f803e3d5ffd5b50505060206040510351935050505092915050565b5f806101c084610276565b90505f6101cc826102a5565b90508573ffffffffffffffffffffffffffffffffffffffff166101ef828661014b565b73ffffffffffffffffffffffffffffffffffffffff1614925050509392505050565b5f805f6041845114610258576040517f08c379a000000000000000000000000000000000000000000000000000000000815260040161024f90610857565b60405180910390fd5b602084015192506040840151915060608401515f1a90509193909250565b5f8160405160200161028891906108e1565b604051602081830303815290604052805190602001209050919050565b5f816040516020016102b79190610961565b604051602081830303815290604052805190602001209050919050565b5f604051905090565b5f80fd5b5f80fd5b5f819050919050565b6102f7816102e5565b8114610301575f80fd5b50565b5f81359050610312816102ee565b92915050565b5f80fd5b5f80fd5b5f601f19601f8301169050919050565b7f4e487b71000000000000000000000000000000000000000000000000000000005f52604160045260245ffd5b61036682610320565b810181811067ffffffffffffffff8211171561038557610384610330565b5b80604052505050565b5f6103976102d4565b90506103a3828261035d565b919050565b5f67ffffffffffffffff8211156103c2576103c1610330565b5b6103cb82610320565b9050602081019050919050565b828183375f83830152505050565b5f6103f86103f3846103a8565b61038e565b9050828152602081018484840111156104145761041361031c565b5b61041f8482856103d8565b509392505050565b5f82601f83011261043b5761043a610318565b5b813561044b8482602086016103e6565b91505092915050565b5f806040838503121561046a576104696102dd565b5b5f61047785828601610304565b925050602083013567ffffffffffffffff811115610498576104976102e1565b5b6104a485828601610427565b9150509250929050565b5f73ffffffffffffffffffffffffffffffffffffffff82169050919050565b5f6104d7826104ae565b9050919050565b6104e7816104cd565b82525050565b5f6020820190506105005f8301846104de565b92915050565b61050f816104cd565b8114610519575f80fd5b50565b5f8135905061052a81610506565b92915050565b5f67ffffffffffffffff82111561054a57610549610330565b5b61055382610320565b9050602081019050919050565b5f61057261056d84610530565b61038e565b90508281526020810184848401111561058e5761058d61031c565b5b6105998482856103d8565b509392505050565b5f82601f8301126105b5576105b4610318565b5b81356105c5848260208601610560565b91505092915050565b5f805f606084860312156105e5576105e46102dd565b5b5f6105f28682870161051c565b935050602084013567ffffffffffffffff811115610613576106126102e1565b5b61061f868287016105a1565b925050604084013567ffffffffffffffff8111156106405761063f6102e1565b5b61064c86828701610427565b9150509250925092565b5f8115159050919050565b61066a81610656565b82525050565b5f6020820190506106835f830184610661565b92915050565b5f6020828403121561069e5761069d6102dd565b5b5f82013567ffffffffffffffff8111156106bb576106ba6102e1565b5b6106c784828501610427565b91505092915050565b6106d9816102e5565b82525050565b5f60ff82169050919050565b6106f4816106df565b82525050565b5f60608201905061070d5f8301866106d0565b61071a60208301856106d0565b61072760408301846106eb565b949350505050565b5f60208284031215610744576107436102dd565b5b5f82013567ffffffffffffffff811115610761576107606102e1565b5b61076d848285016105a1565b91505092915050565b5f6020820190506107895f8301846106d0565b92915050565b5f602082840312156107a4576107a36102dd565b5b5f6107b184828501610304565b91505092915050565b5f6080820190506107cd5f8301876106d0565b6107da60208301866106eb565b6107e760408301856106d0565b6107f460608301846106d0565b95945050505050565b5f82825260208201905092915050565b7f696e76616c696420737472696e6720656e7465726564000000000000000000005f82015250565b5f6108416016836107fd565b915061084c8261080d565b602082019050919050565b5f6020820190508181035f83015261086e81610835565b9050919050565b5f81519050919050565b5f81905092915050565b5f5b838110156108a657808201518184015260208101905061088b565b5f8484015250505050565b5f6108bb82610875565b6108c5818561087f565b93506108d5818560208601610889565b80840191505092915050565b5f6108ec82846108b1565b915081905092915050565b7f19457468657265756d205369676e6564204d6573736167653a0a3332000000005f82015250565b5f61092b601c8361087f565b9150610936826108f7565b601c82019050919050565b5f819050919050565b61095b610956826102e5565b610941565b82525050565b5f61096b8261091f565b9150610977828461094a565b6020820191508190509291505056fea264697066735822122021417a92764c64b6480bb43f9784d3f50b5e842917d160be6581ec5096ed55b964736f6c63430008150033",
					"opcodes": "PUSH1 0x80 PUSH1 0x40 MSTORE CALLVALUE DUP1 ISZERO PUSH2 0xF JUMPI PUSH0 DUP1 REVERT JUMPDEST POP PUSH2 0x9BC DUP1 PUSH2 0x1D PUSH0 CODECOPY PUSH0 RETURN INVALID PUSH1 0x80 PUSH1 0x40 MSTORE CALLVALUE DUP1 ISZERO PUSH2 0xF JUMPI PUSH0 DUP1 REVERT JUMPDEST POP PUSH1 0x4 CALLDATASIZE LT PUSH2 0x55 JUMPI PUSH0 CALLDATALOAD PUSH1 0xE0 SHR DUP1 PUSH4 0x19045A25 EQ PUSH2 0x59 JUMPI DUP1 PUSH4 0x2DD34F0F EQ PUSH2 0x89 JUMPI DUP1 PUSH4 0x65D894E9 EQ PUSH2 0xB9 JUMPI DUP1 PUSH4 0xB446F3B2 EQ PUSH2 0xEB JUMPI DUP1 PUSH4 0xFA540801 EQ PUSH2 0x11B JUMPI JUMPDEST PUSH0 DUP1 REVERT JUMPDEST PUSH2 0x73 PUSH1 0x4 DUP1 CALLDATASIZE SUB DUP2 ADD SWAP1 PUSH2 0x6E SWAP2 SWAP1 PUSH2 0x454 JUMP JUMPDEST PUSH2 0x14B JUMP JUMPDEST PUSH1 0x40 MLOAD PUSH2 0x80 SWAP2 SWAP1 PUSH2 0x4ED JUMP JUMPDEST PUSH1 0x40 MLOAD DUP1 SWAP2 SUB SWAP1 RETURN JUMPDEST PUSH2 0xA3 PUSH1 0x4 DUP1 CALLDATASIZE SUB DUP2 ADD SWAP1 PUSH2 0x9E SWAP2 SWAP1 PUSH2 0x5CE JUMP JUMPDEST PUSH2 0x1B5 JUMP JUMPDEST PUSH1 0x40 MLOAD PUSH2 0xB0 SWAP2 SWAP1 PUSH2 0x670 JUMP JUMPDEST PUSH1 0x40 MLOAD DUP1 SWAP2 SUB SWAP1 RETURN JUMPDEST PUSH2 0xD3 PUSH1 0x4 DUP1 CALLDATASIZE SUB DUP2 ADD SWAP1 PUSH2 0xCE SWAP2 SWAP1 PUSH2 0x689 JUMP JUMPDEST PUSH2 0x211 JUMP JUMPDEST PUSH1 0x40 MLOAD PUSH2 0xE2 SWAP4 SWAP3 SWAP2 SWAP1 PUSH2 0x6FA JUMP JUMPDEST PUSH1 0x40 MLOAD DUP1 SWAP2 SUB SWAP1 RETURN JUMPDEST PUSH2 0x105 PUSH1 0x4 DUP1 CALLDATASIZE SUB DUP2 ADD SWAP1 PUSH2 0x100 SWAP2 SWAP1 PUSH2 0x72F JUMP JUMPDEST PUSH2 0x276 JUMP JUMPDEST PUSH1 0x40 MLOAD PUSH2 0x112 SWAP2 SWAP1 PUSH2 0x776 JUMP JUMPDEST PUSH1 0x40 MLOAD DUP1 SWAP2 SUB SWAP1 RETURN JUMPDEST PUSH2 0x135 PUSH1 0x4 DUP1 CALLDATASIZE SUB DUP2 ADD SWAP1 PUSH2 0x130 SWAP2 SWAP1 PUSH2 0x78F JUMP JUMPDEST PUSH2 0x2A5 JUMP JUMPDEST PUSH1 0x40 MLOAD PUSH2 0x142 SWAP2 SWAP1 PUSH2 0x776 JUMP JUMPDEST PUSH1 0x40 MLOAD DUP1 SWAP2 SUB SWAP1 RETURN JUMPDEST PUSH0 DUP1 PUSH0 DUP1 PUSH2 0x158 DUP6 PUSH2 0x211 JUMP JUMPDEST SWAP3 POP SWAP3 POP SWAP3 POP PUSH1 0x1 DUP7 DUP3 DUP6 DUP6 PUSH1 0x40 MLOAD PUSH0 DUP2 MSTORE PUSH1 0x20 ADD PUSH1 0x40 MSTORE PUSH1 0x40 MLOAD PUSH2 0x180 SWAP5 SWAP4 SWAP3 SWAP2 SWAP1 PUSH2 0x7BA JUMP JUMPDEST PUSH1 0x20 PUSH1 0x40 MLOAD PUSH1 0x20 DUP2 SUB SWAP1 DUP1 DUP5 SUB SWAP1 DUP6 GAS STATICCALL ISZERO DUP1 ISZERO PUSH2 0x1A0 JUMPI RETURNDATASIZE PUSH0 DUP1 RETURNDATACOPY RETURNDATASIZE PUSH0 REVERT JUMPDEST POP POP POP PUSH1 0x20 PUSH1 0x40 MLOAD SUB MLOAD SWAP4 POP POP POP POP SWAP3 SWAP2 POP POP JUMP JUMPDEST PUSH0 DUP1 PUSH2 0x1C0 DUP5 PUSH2 0x276 JUMP JUMPDEST SWAP1 POP PUSH0 PUSH2 0x1CC DUP3 PUSH2 0x2A5 JUMP JUMPDEST SWAP1 POP DUP6 PUSH20 0xFFFFFFFFFFFFFFFFFFFFFFFFFFFFFFFFFFFFFFFF AND PUSH2 0x1EF DUP3 DUP7 PUSH2 0x14B JUMP JUMPDEST PUSH20 0xFFFFFFFFFFFFFFFFFFFFFFFFFFFFFFFFFFFFFFFF AND EQ SWAP3 POP POP POP SWAP4 SWAP3 POP POP POP JUMP JUMPDEST PUSH0 DUP1 PUSH0 PUSH1 0x41 DUP5 MLOAD EQ PUSH2 0x258 JUMPI PUSH1 0x40 MLOAD PUSH32 0x8C379A000000000000000000000000000000000000000000000000000000000 DUP2 MSTORE PUSH1 0x4 ADD PUSH2 0x24F SWAP1 PUSH2 0x857 JUMP JUMPDEST PUSH1 0x40 MLOAD DUP1 SWAP2 SUB SWAP1 REVERT JUMPDEST PUSH1 0x20 DUP5 ADD MLOAD SWAP3 POP PUSH1 0x40 DUP5 ADD MLOAD SWAP2 POP PUSH1 0x60 DUP5 ADD MLOAD PUSH0 BYTE SWAP1 POP SWAP2 SWAP4 SWAP1 SWAP3 POP JUMP JUMPDEST PUSH0 DUP2 PUSH1 0x40 MLOAD PUSH1 0x20 ADD PUSH2 0x288 SWAP2 SWAP1 PUSH2 0x8E1 JUMP JUMPDEST PUSH1 0x40 MLOAD PUSH1 0x20 DUP2 DUP4 SUB SUB DUP2 MSTORE SWAP1 PUSH1 0x40 MSTORE DUP1 MLOAD SWAP1 PUSH1 0x20 ADD KECCAK256 SWAP1 POP SWAP2 SWAP1 POP JUMP JUMPDEST PUSH0 DUP2 PUSH1 0x40 MLOAD PUSH1 0x20 ADD PUSH2 0x2B7 SWAP2 SWAP1 PUSH2 0x961 JUMP JUMPDEST PUSH1 0x40 MLOAD PUSH1 0x20 DUP2 DUP4 SUB SUB DUP2 MSTORE SWAP1 PUSH1 0x40 MSTORE DUP1 MLOAD SWAP1 PUSH1 0x20 ADD KECCAK256 SWAP1 POP SWAP2 SWAP1 POP JUMP JUMPDEST PUSH0 PUSH1 0x40 MLOAD SWAP1 POP SWAP1 JUMP JUMPDEST PUSH0 DUP1 REVERT JUMPDEST PUSH0 DUP1 REVERT JUMPDEST PUSH0 DUP2 SWAP1 POP SWAP2 SWAP1 POP JUMP JUMPDEST PUSH2 0x2F7 DUP2 PUSH2 0x2E5 JUMP JUMPDEST DUP2 EQ PUSH2 0x301 JUMPI PUSH0 DUP1 REVERT JUMPDEST POP JUMP JUMPDEST PUSH0 DUP2 CALLDATALOAD SWAP1 POP PUSH2 0x312 DUP2 PUSH2 0x2EE JUMP JUMPDEST SWAP3 SWAP2 POP POP JUMP JUMPDEST PUSH0 DUP1 REVERT JUMPDEST PUSH0 DUP1 REVERT JUMPDEST PUSH0 PUSH1 0x1F NOT PUSH1 0x1F DUP4 ADD AND SWAP1 POP SWAP2 SWAP1 POP JUMP JUMPDEST PUSH32 0x4E487B7100000000000000000000000000000000000000000000000000000000 PUSH0 MSTORE PUSH1 0x41 PUSH1 0x4 MSTORE PUSH1 0x24 PUSH0 REVERT JUMPDEST PUSH2 0x366 DUP3 PUSH2 0x320 JUMP JUMPDEST DUP2 ADD DUP2 DUP2 LT PUSH8 0xFFFFFFFFFFFFFFFF DUP3 GT OR ISZERO PUSH2 0x385 JUMPI PUSH2 0x384 PUSH2 0x330 JUMP JUMPDEST JUMPDEST DUP1 PUSH1 0x40 MSTORE POP POP POP JUMP JUMPDEST PUSH0 PUSH2 0x397 PUSH2 0x2D4 JUMP JUMPDEST SWAP1 POP PUSH2 0x3A3 DUP3 DUP3 PUSH2 0x35D JUMP JUMPDEST SWAP2 SWAP1 POP JUMP JUMPDEST PUSH0 PUSH8 0xFFFFFFFFFFFFFFFF DUP3 GT ISZERO PUSH2 0x3C2 JUMPI PUSH2 0x3C1 PUSH2 0x330 JUMP JUMPDEST JUMPDEST PUSH2 0x3CB DUP3 PUSH2 0x320 JUMP JUMPDEST SWAP1 POP PUSH1 0x20 DUP2 ADD SWAP1 POP SWAP2 SWAP1 POP JUMP JUMPDEST DUP3 DUP2 DUP4 CALLDATACOPY PUSH0 DUP4 DUP4 ADD MSTORE POP POP POP JUMP JUMPDEST PUSH0 PUSH2 0x3F8 PUSH2 0x3F3 DUP5 PUSH2 0x3A8 JUMP JUMPDEST PUSH2 0x38E JUMP JUMPDEST SWAP1 POP DUP3 DUP2 MSTORE PUSH1 0x20 DUP2 ADD DUP5 DUP5 DUP5 ADD GT ISZERO PUSH2 0x414 JUMPI PUSH2 0x413 PUSH2 0x31C JUMP JUMPDEST JUMPDEST PUSH2 0x41F DUP5 DUP3 DUP6 PUSH2 0x3D8 JUMP JUMPDEST POP SWAP4 SWAP3 POP POP POP JUMP JUMPDEST PUSH0 DUP3 PUSH1 0x1F DUP4 ADD SLT PUSH2 0x43B JUMPI PUSH2 0x43A PUSH2 0x318 JUMP JUMPDEST JUMPDEST DUP2 CALLDATALOAD PUSH2 0x44B DUP5 DUP3 PUSH1 0x20 DUP7 ADD PUSH2 0x3E6 JUMP JUMPDEST SWAP2 POP POP SWAP3 SWAP2 POP POP JUMP JUMPDEST PUSH0 DUP1 PUSH1 0x40 DUP4 DUP6 SUB SLT ISZERO PUSH2 0x46A JUMPI PUSH2 0x469 PUSH2 0x2DD JUMP JUMPDEST JUMPDEST PUSH0 PUSH2 0x477 DUP6 DUP3 DUP7 ADD PUSH2 0x304 JUMP JUMPDEST SWAP3 POP POP PUSH1 0x20 DUP4 ADD CALLDATALOAD PUSH8 0xFFFFFFFFFFFFFFFF DUP2 GT ISZERO PUSH2 0x498 JUMPI PUSH2 0x497 PUSH2 0x2E1 JUMP JUMPDEST JUMPDEST PUSH2 0x4A4 DUP6 DUP3 DUP7 ADD PUSH2 0x427 JUMP JUMPDEST SWAP2 POP POP SWAP3 POP SWAP3 SWAP1 POP JUMP JUMPDEST PUSH0 PUSH20 0xFFFFFFFFFFFFFFFFFFFFFFFFFFFFFFFFFFFFFFFF DUP3 AND SWAP1 POP SWAP2 SWAP1 POP JUMP JUMPDEST PUSH0 PUSH2 0x4D7 DUP3 PUSH2 0x4AE JUMP JUMPDEST SWAP1 POP SWAP2 SWAP1 POP JUMP JUMPDEST PUSH2 0x4E7 DUP2 PUSH2 0x4CD JUMP JUMPDEST DUP3 MSTORE POP POP JUMP JUMPDEST PUSH0 PUSH1 0x20 DUP3 ADD SWAP1 POP PUSH2 0x500 PUSH0 DUP4 ADD DUP5 PUSH2 0x4DE JUMP JUMPDEST SWAP3 SWAP2 POP POP JUMP JUMPDEST PUSH2 0x50F DUP2 PUSH2 0x4CD JUMP JUMPDEST DUP2 EQ PUSH2 0x519 JUMPI PUSH0 DUP1 REVERT JUMPDEST POP JUMP JUMPDEST PUSH0 DUP2 CALLDATALOAD SWAP1 POP PUSH2 0x52A DUP2 PUSH2 0x506 JUMP JUMPDEST SWAP3 SWAP2 POP POP JUMP JUMPDEST PUSH0 PUSH8 0xFFFFFFFFFFFFFFFF DUP3 GT ISZERO PUSH2 0x54A JUMPI PUSH2 0x549 PUSH2 0x330 JUMP JUMPDEST JUMPDEST PUSH2 0x553 DUP3 PUSH2 0x320 JUMP JUMPDEST SWAP1 POP PUSH1 0x20 DUP2 ADD SWAP1 POP SWAP2 SWAP1 POP JUMP JUMPDEST PUSH0 PUSH2 0x572 PUSH2 0x56D DUP5 PUSH2 0x530 JUMP JUMPDEST PUSH2 0x38E JUMP JUMPDEST SWAP1 POP DUP3 DUP2 MSTORE PUSH1 0x20 DUP2 ADD DUP5 DUP5 DUP5 ADD GT ISZERO PUSH2 0x58E JUMPI PUSH2 0x58D PUSH2 0x31C JUMP JUMPDEST JUMPDEST PUSH2 0x599 DUP5 DUP3 DUP6 PUSH2 0x3D8 JUMP JUMPDEST POP SWAP4 SWAP3 POP POP POP JUMP JUMPDEST PUSH0 DUP3 PUSH1 0x1F DUP4 ADD SLT PUSH2 0x5B5 JUMPI PUSH2 0x5B4 PUSH2 0x318 JUMP JUMPDEST JUMPDEST DUP2 CALLDATALOAD PUSH2 0x5C5 DUP5 DUP3 PUSH1 0x20 DUP7 ADD PUSH2 0x560 JUMP JUMPDEST SWAP2 POP POP SWAP3 SWAP2 POP POP JUMP JUMPDEST PUSH0 DUP1 PUSH0 PUSH1 0x60 DUP5 DUP7 SUB SLT ISZERO PUSH2 0x5E5 JUMPI PUSH2 0x5E4 PUSH2 0x2DD JUMP JUMPDEST JUMPDEST PUSH0 PUSH2 0x5F2 DUP7 DUP3 DUP8 ADD PUSH2 0x51C JUMP JUMPDEST SWAP4 POP POP PUSH1 0x20 DUP5 ADD CALLDATALOAD PUSH8 0xFFFFFFFFFFFFFFFF DUP2 GT ISZERO PUSH2 0x613 JUMPI PUSH2 0x612 PUSH2 0x2E1 JUMP JUMPDEST JUMPDEST PUSH2 0x61F DUP7 DUP3 DUP8 ADD PUSH2 0x5A1 JUMP JUMPDEST SWAP3 POP POP PUSH1 0x40 DUP5 ADD CALLDATALOAD PUSH8 0xFFFFFFFFFFFFFFFF DUP2 GT ISZERO PUSH2 0x640 JUMPI PUSH2 0x63F PUSH2 0x2E1 JUMP JUMPDEST JUMPDEST PUSH2 0x64C DUP7 DUP3 DUP8 ADD PUSH2 0x427 JUMP JUMPDEST SWAP2 POP POP SWAP3 POP SWAP3 POP SWAP3 JUMP JUMPDEST PUSH0 DUP2 ISZERO ISZERO SWAP1 POP SWAP2 SWAP1 POP JUMP JUMPDEST PUSH2 0x66A DUP2 PUSH2 0x656 JUMP JUMPDEST DUP3 MSTORE POP POP JUMP JUMPDEST PUSH0 PUSH1 0x20 DUP3 ADD SWAP1 POP PUSH2 0x683 PUSH0 DUP4 ADD DUP5 PUSH2 0x661 JUMP JUMPDEST SWAP3 SWAP2 POP POP JUMP JUMPDEST PUSH0 PUSH1 0x20 DUP3 DUP5 SUB SLT ISZERO PUSH2 0x69E JUMPI PUSH2 0x69D PUSH2 0x2DD JUMP JUMPDEST JUMPDEST PUSH0 DUP3 ADD CALLDATALOAD PUSH8 0xFFFFFFFFFFFFFFFF DUP2 GT ISZERO PUSH2 0x6BB JUMPI PUSH2 0x6BA PUSH2 0x2E1 JUMP JUMPDEST JUMPDEST PUSH2 0x6C7 DUP5 DUP3 DUP6 ADD PUSH2 0x427 JUMP JUMPDEST SWAP2 POP POP SWAP3 SWAP2 POP POP JUMP JUMPDEST PUSH2 0x6D9 DUP2 PUSH2 0x2E5 JUMP JUMPDEST DUP3 MSTORE POP POP JUMP JUMPDEST PUSH0 PUSH1 0xFF DUP3 AND SWAP1 POP SWAP2 SWAP1 POP JUMP JUMPDEST PUSH2 0x6F4 DUP2 PUSH2 0x6DF JUMP JUMPDEST DUP3 MSTORE POP POP JUMP JUMPDEST PUSH0 PUSH1 0x60 DUP3 ADD SWAP1 POP PUSH2 0x70D PUSH0 DUP4 ADD DUP7 PUSH2 0x6D0 JUMP JUMPDEST PUSH2 0x71A PUSH1 0x20 DUP4 ADD DUP6 PUSH2 0x6D0 JUMP JUMPDEST PUSH2 0x727 PUSH1 0x40 DUP4 ADD DUP5 PUSH2 0x6EB JUMP JUMPDEST SWAP5 SWAP4 POP POP POP POP JUMP JUMPDEST PUSH0 PUSH1 0x20 DUP3 DUP5 SUB SLT ISZERO PUSH2 0x744 JUMPI PUSH2 0x743 PUSH2 0x2DD JUMP JUMPDEST JUMPDEST PUSH0 DUP3 ADD CALLDATALOAD PUSH8 0xFFFFFFFFFFFFFFFF DUP2 GT ISZERO PUSH2 0x761 JUMPI PUSH2 0x760 PUSH2 0x2E1 JUMP JUMPDEST JUMPDEST PUSH2 0x76D DUP5 DUP3 DUP6 ADD PUSH2 0x5A1 JUMP JUMPDEST SWAP2 POP POP SWAP3 SWAP2 POP POP JUMP JUMPDEST PUSH0 PUSH1 0x20 DUP3 ADD SWAP1 POP PUSH2 0x789 PUSH0 DUP4 ADD DUP5 PUSH2 0x6D0 JUMP JUMPDEST SWAP3 SWAP2 POP POP JUMP JUMPDEST PUSH0 PUSH1 0x20 DUP3 DUP5 SUB SLT ISZERO PUSH2 0x7A4 JUMPI PUSH2 0x7A3 PUSH2 0x2DD JUMP JUMPDEST JUMPDEST PUSH0 PUSH2 0x7B1 DUP5 DUP3 DUP6 ADD PUSH2 0x304 JUMP JUMPDEST SWAP2 POP POP SWAP3 SWAP2 POP POP JUMP JUMPDEST PUSH0 PUSH1 0x80 DUP3 ADD SWAP1 POP PUSH2 0x7CD PUSH0 DUP4 ADD DUP8 PUSH2 0x6D0 JUMP JUMPDEST PUSH2 0x7DA PUSH1 0x20 DUP4 ADD DUP7 PUSH2 0x6EB JUMP JUMPDEST PUSH2 0x7E7 PUSH1 0x40 DUP4 ADD DUP6 PUSH2 0x6D0 JUMP JUMPDEST PUSH2 0x7F4 PUSH1 0x60 DUP4 ADD DUP5 PUSH2 0x6D0 JUMP JUMPDEST SWAP6 SWAP5 POP POP POP POP POP JUMP JUMPDEST PUSH0 DUP3 DUP3 MSTORE PUSH1 0x20 DUP3 ADD SWAP1 POP SWAP3 SWAP2 POP POP JUMP JUMPDEST PUSH32 0x696E76616C696420737472696E6720656E746572656400000000000000000000 PUSH0 DUP3 ADD MSTORE POP JUMP JUMPDEST PUSH0 PUSH2 0x841 PUSH1 0x16 DUP4 PUSH2 0x7FD JUMP JUMPDEST SWAP2 POP PUSH2 0x84C DUP3 PUSH2 0x80D JUMP JUMPDEST PUSH1 0x20 DUP3 ADD SWAP1 POP SWAP2 SWAP1 POP JUMP JUMPDEST PUSH0 PUSH1 0x20 DUP3 ADD SWAP1 POP DUP2 DUP2 SUB PUSH0 DUP4 ADD MSTORE PUSH2 0x86E DUP2 PUSH2 0x835 JUMP JUMPDEST SWAP1 POP SWAP2 SWAP1 POP JUMP JUMPDEST PUSH0 DUP2 MLOAD SWAP1 POP SWAP2 SWAP1 POP JUMP JUMPDEST PUSH0 DUP2 SWAP1 POP SWAP3 SWAP2 POP POP JUMP JUMPDEST PUSH0 JUMPDEST DUP4 DUP2 LT ISZERO PUSH2 0x8A6 JUMPI DUP1 DUP3 ADD MLOAD DUP2 DUP5 ADD MSTORE PUSH1 0x20 DUP2 ADD SWAP1 POP PUSH2 0x88B JUMP JUMPDEST PUSH0 DUP5 DUP5 ADD MSTORE POP POP POP POP JUMP JUMPDEST PUSH0 PUSH2 0x8BB DUP3 PUSH2 0x875 JUMP JUMPDEST PUSH2 0x8C5 DUP2 DUP6 PUSH2 0x87F JUMP JUMPDEST SWAP4 POP PUSH2 0x8D5 DUP2 DUP6 PUSH1 0x20 DUP7 ADD PUSH2 0x889 JUMP JUMPDEST DUP1 DUP5 ADD SWAP2 POP POP SWAP3 SWAP2 POP POP JUMP JUMPDEST PUSH0 PUSH2 0x8EC DUP3 DUP5 PUSH2 0x8B1 JUMP JUMPDEST SWAP2 POP DUP2 SWAP1 POP SWAP3 SWAP2 POP POP JUMP JUMPDEST PUSH32 0x19457468657265756D205369676E6564204D6573736167653A0A333200000000 PUSH0 DUP3 ADD MSTORE POP JUMP JUMPDEST PUSH0 PUSH2 0x92B PUSH1 0x1C DUP4 PUSH2 0x87F JUMP JUMPDEST SWAP2 POP PUSH2 0x936 DUP3 PUSH2 0x8F7 JUMP JUMPDEST PUSH1 0x1C DUP3 ADD SWAP1 POP SWAP2 SWAP1 POP JUMP JUMPDEST PUSH0 DUP2 SWAP1 POP SWAP2 SWAP1 POP JUMP JUMPDEST PUSH2 0x95B PUSH2 0x956 DUP3 PUSH2 0x2E5 JUMP JUMPDEST PUSH2 0x941 JUMP JUMPDEST DUP3 MSTORE POP POP JUMP JUMPDEST PUSH0 PUSH2 0x96B DUP3 PUSH2 0x91F JUMP JUMPDEST SWAP2 POP PUSH2 0x977 DUP3 DUP5 PUSH2 0x94A JUMP JUMPDEST PUSH1 0x20 DUP3 ADD SWAP2 POP DUP2 SWAP1 POP SWAP3 SWAP2 POP POP JUMP INVALID LOG2 PUSH5 0x6970667358 0x22 SLT KECCAK256 0x21 COINBASE PUSH27 0x92764C64B6480BB43F9784D3F50B5E842917D160BE6581EC5096ED SSTORE 0xB9 PUSH5 0x736F6C6343 STOP ADDMOD ISZERO STOP CALLER "
				},
				"gasEstimates": {
					"creation": {
						"codeDepositCost": "498400",
						"executionCost": "528",
						"totalCost": "498928"
					},
					"external": {
						"getEthSignedMessageHash(bytes32)": "infinite",
						"getMessageHash(string)": "infinite",
						"recover(bytes32,bytes)": "infinite",
						"split(bytes)": "infinite",
						"verify(address,string,bytes)": "infinite"
					}
				},
				"methodIdentifiers": {
					"getEthSignedMessageHash(bytes32)": "fa540801",
					"getMessageHash(string)": "b446f3b2",
					"recover(bytes32,bytes)": "19045a25",
					"split(bytes)": "65d894e9",
					"verify(address,string,bytes)": "2dd34f0f"
				}
			},
			"storageLayout": {
				"storage": [],
				"types": null
			},
			"userdoc": {
				"kind": "user",
				"methods": {},
				"version": 1
			}
		}
	}
}