{
	"8.Library/Library.sol": {
		"TestArray": {
			"abi": [
				{
					"inputs": [
						{
							"internalType": "uint256",
							"name": "",
							"type": "uint256"
						}
					],
					"name": "arr",
					"outputs": [
						{
							"internalType": "uint256",
							"name": "",
							"type": "uint256"
						}
					],
					"stateMutability": "view",
					"type": "function"
				},
				{
					"inputs": [],
					"name": "testFind",
					"outputs": [
						{
							"internalType": "uint256",
							"name": "i",
							"type": "uint256"
						}
					],
					"stateMutability": "view",
					"type": "function"
				}
			],
			"devdoc": {
				"kind": "dev",
				"methods": {},
				"version": 1
			},
			"evm": {
				"assembly": "    /* \"8.Library/Library.sol\":555:776  contract TestArray {... */\n  mstore(0x40, 0x80)\n    /* \"8.Library/Library.sol\":613:640  uint[] public arr = [3,2,1] */\n  mload(0x40)\n  dup1\n  0x60\n  add\n  0x40\n  mstore\n  dup1\n    /* \"8.Library/Library.sol\":634:635  3 */\n  0x03\n    /* \"8.Library/Library.sol\":613:640  uint[] public arr = [3,2,1] */\n  0xff\n  and\n  dup2\n  mstore\n  0x20\n  add\n    /* \"8.Library/Library.sol\":636:637  2 */\n  0x02\n    /* \"8.Library/Library.sol\":613:640  uint[] public arr = [3,2,1] */\n  0xff\n  and\n  dup2\n  mstore\n  0x20\n  add\n    /* \"8.Library/Library.sol\":638:639  1 */\n  0x01\n    /* \"8.Library/Library.sol\":613:640  uint[] public arr = [3,2,1] */\n  0xff\n  and\n  dup2\n  mstore\n  pop\n  0x00\n  swap1\n  0x03\n  tag_1\n  swap3\n  swap2\n  swap1\n  tag_2\n  jump\t// in\ntag_1:\n  pop\n    /* \"8.Library/Library.sol\":555:776  contract TestArray {... */\n  callvalue\n  dup1\n  iszero\n  tag_3\n  jumpi\n  0x00\n  dup1\n  revert\ntag_3:\n  pop\n  jump(tag_4)\ntag_2:\n  dup3\n  dup1\n  sload\n  dup3\n  dup3\n  sstore\n  swap1\n  0x00\n  mstore\n  keccak256(0x00, 0x20)\n  swap1\n  dup2\n  add\n  swap3\n  dup3\n  iszero\n  tag_5\n  jumpi\n  swap2\n  0x20\n  mul\n  dup3\n  add\ntag_6:\n  dup3\n  dup2\n  gt\n  iszero\n  tag_7\n  jumpi\n  dup3\n  mload\n  dup3\n  swap1\n  0xff\n  and\n  swap1\n  sstore\n  swap2\n  0x20\n  add\n  swap2\n  swap1\n  0x01\n  add\n  swap1\n  jump(tag_6)\ntag_7:\ntag_5:\n  pop\n  swap1\n  pop\n  tag_8\n  swap2\n  swap1\n  tag_9\n  jump\t// in\ntag_8:\n  pop\n  swap1\n  jump\t// out\ntag_9:\ntag_10:\n  dup1\n  dup3\n  gt\n  iszero\n  tag_11\n  jumpi\n  0x00\n  dup2\n  0x00\n  swap1\n  sstore\n  pop\n  0x01\n  add\n  jump(tag_10)\ntag_11:\n  pop\n  swap1\n  jump\t// out\ntag_4:\n  dataSize(sub_0)\n  dup1\n  dataOffset(sub_0)\n  0x00\n  codecopy\n  0x00\n  return\nstop\n\nsub_0: assembly {\n        /* \"8.Library/Library.sol\":555:776  contract TestArray {... */\n      mstore(0x40, 0x80)\n      callvalue\n      dup1\n      iszero\n      tag_1\n      jumpi\n      0x00\n      dup1\n      revert\n    tag_1:\n      pop\n      jumpi(tag_2, lt(calldatasize, 0x04))\n      shr(0xe0, calldataload(0x00))\n      dup1\n      0x71e5ee5f\n      eq\n      tag_3\n      jumpi\n      dup1\n      0xa973e27c\n      eq\n      tag_4\n      jumpi\n    tag_2:\n      0x00\n      dup1\n      revert\n        /* \"8.Library/Library.sol\":613:640  uint[] public arr = [3,2,1] */\n    tag_3:\n      tag_5\n      0x04\n      dup1\n      calldatasize\n      sub\n      dup2\n      add\n      swap1\n      tag_6\n      swap2\n      swap1\n      tag_7\n      jump\t// in\n    tag_6:\n      tag_8\n      jump\t// in\n    tag_5:\n      mload(0x40)\n      tag_9\n      swap2\n      swap1\n      tag_10\n      jump\t// in\n    tag_9:\n      mload(0x40)\n      dup1\n      swap2\n      sub\n      swap1\n      return\n        /* \"8.Library/Library.sol\":649:773  function testFind() external view returns (uint i) {... */\n    tag_4:\n      tag_11\n      tag_12\n      jump\t// in\n    tag_11:\n      mload(0x40)\n      tag_13\n      swap2\n      swap1\n      tag_10\n      jump\t// in\n    tag_13:\n      mload(0x40)\n      dup1\n      swap2\n      sub\n      swap1\n      return\n        /* \"8.Library/Library.sol\":613:640  uint[] public arr = [3,2,1] */\n    tag_8:\n      0x00\n      dup2\n      dup2\n      sload\n      dup2\n      lt\n      tag_14\n      jumpi\n      0x00\n      dup1\n      revert\n    tag_14:\n      swap1\n      0x00\n      mstore\n      keccak256(0x00, 0x20)\n      add\n      0x00\n      swap2\n      pop\n      swap1\n      pop\n      sload\n      dup2\n      jump\t// out\n        /* \"8.Library/Library.sol\":649:773  function testFind() external view returns (uint i) {... */\n    tag_12:\n        /* \"8.Library/Library.sol\":692:698  uint i */\n      0x00\n        /* \"8.Library/Library.sol\":754:765  arr.find(2) */\n      tag_17\n        /* \"8.Library/Library.sol\":763:764  2 */\n      0x02\n        /* \"8.Library/Library.sol\":754:757  arr */\n      0x00\n        /* \"8.Library/Library.sol\":754:762  arr.find */\n      tag_18\n      swap1\n        /* \"8.Library/Library.sol\":754:765  arr.find(2) */\n      swap2\n      swap1\n      0xffffffff\n      and\n      jump\t// in\n    tag_17:\n        /* \"8.Library/Library.sol\":750:765  i = arr.find(2) */\n      swap1\n      pop\n        /* \"8.Library/Library.sol\":649:773  function testFind() external view returns (uint i) {... */\n      swap1\n      jump\t// out\n        /* \"8.Library/Library.sol\":339:548  function find(uint[] storage arr, uint x) internal view returns(uint) {... */\n    tag_18:\n        /* \"8.Library/Library.sol\":403:407  uint */\n      0x00\n        /* \"8.Library/Library.sol\":424:430  uint i */\n      dup1\n        /* \"8.Library/Library.sol\":431:432  0 */\n      0x00\n        /* \"8.Library/Library.sol\":424:432  uint i=0 */\n      swap1\n      pop\n        /* \"8.Library/Library.sol\":420:503  for(uint i=0; i<arr.length; i++){... */\n    tag_20:\n        /* \"8.Library/Library.sol\":436:439  arr */\n      dup4\n        /* \"8.Library/Library.sol\":436:446  arr.length */\n      dup1\n      sload\n      swap1\n      pop\n        /* \"8.Library/Library.sol\":434:435  i */\n      dup2\n        /* \"8.Library/Library.sol\":434:446  i<arr.length */\n      lt\n        /* \"8.Library/Library.sol\":420:503  for(uint i=0; i<arr.length; i++){... */\n      iszero\n      tag_21\n      jumpi\n        /* \"8.Library/Library.sol\":480:481  x */\n      dup3\n        /* \"8.Library/Library.sol\":470:473  arr */\n      dup5\n        /* \"8.Library/Library.sol\":474:475  i */\n      dup3\n        /* \"8.Library/Library.sol\":470:476  arr[i] */\n      dup2\n      sload\n      dup2\n      lt\n      tag_23\n      jumpi\n      tag_24\n      tag_25\n      jump\t// in\n    tag_24:\n    tag_23:\n      swap1\n      0x00\n      mstore\n      keccak256(0x00, 0x20)\n      add\n      sload\n        /* \"8.Library/Library.sol\":470:481  arr[i] == x */\n      sub\n        /* \"8.Library/Library.sol\":467:491  if(arr[i] == x) return i */\n      tag_27\n      jumpi\n        /* \"8.Library/Library.sol\":490:491  i */\n      dup1\n        /* \"8.Library/Library.sol\":483:491  return i */\n      swap2\n      pop\n      pop\n      jump(tag_19)\n        /* \"8.Library/Library.sol\":467:491  if(arr[i] == x) return i */\n    tag_27:\n        /* \"8.Library/Library.sol\":448:451  i++ */\n      dup1\n      dup1\n      tag_28\n      swap1\n      tag_29\n      jump\t// in\n    tag_28:\n      swap2\n      pop\n      pop\n        /* \"8.Library/Library.sol\":420:503  for(uint i=0; i<arr.length; i++){... */\n      jump(tag_20)\n    tag_21:\n      pop\n        /* \"8.Library/Library.sol\":513:540  revert(\"element not found\") */\n      mload(0x40)\n      0x08c379a000000000000000000000000000000000000000000000000000000000\n      dup2\n      mstore\n      0x04\n      add\n      tag_30\n      swap1\n      tag_31\n      jump\t// in\n    tag_30:\n      mload(0x40)\n      dup1\n      swap2\n      sub\n      swap1\n      revert\n        /* \"8.Library/Library.sol\":339:548  function find(uint[] storage arr, uint x) internal view returns(uint) {... */\n    tag_19:\n      swap3\n      swap2\n      pop\n      pop\n      jump\t// out\n        /* \"#utility.yul\":88:205   */\n    tag_33:\n        /* \"#utility.yul\":197:198   */\n      0x00\n        /* \"#utility.yul\":194:195   */\n      dup1\n        /* \"#utility.yul\":187:199   */\n      revert\n        /* \"#utility.yul\":334:411   */\n    tag_35:\n        /* \"#utility.yul\":371:378   */\n      0x00\n        /* \"#utility.yul\":400:405   */\n      dup2\n        /* \"#utility.yul\":389:405   */\n      swap1\n      pop\n        /* \"#utility.yul\":334:411   */\n      swap2\n      swap1\n      pop\n      jump\t// out\n        /* \"#utility.yul\":417:539   */\n    tag_36:\n        /* \"#utility.yul\":490:514   */\n      tag_49\n        /* \"#utility.yul\":508:513   */\n      dup2\n        /* \"#utility.yul\":490:514   */\n      tag_35\n      jump\t// in\n    tag_49:\n        /* \"#utility.yul\":483:488   */\n      dup2\n        /* \"#utility.yul\":480:515   */\n      eq\n        /* \"#utility.yul\":470:533   */\n      tag_50\n      jumpi\n        /* \"#utility.yul\":529:530   */\n      0x00\n        /* \"#utility.yul\":526:527   */\n      dup1\n        /* \"#utility.yul\":519:531   */\n      revert\n        /* \"#utility.yul\":470:533   */\n    tag_50:\n        /* \"#utility.yul\":417:539   */\n      pop\n      jump\t// out\n        /* \"#utility.yul\":545:684   */\n    tag_37:\n        /* \"#utility.yul\":591:596   */\n      0x00\n        /* \"#utility.yul\":629:635   */\n      dup2\n        /* \"#utility.yul\":616:636   */\n      calldataload\n        /* \"#utility.yul\":607:636   */\n      swap1\n      pop\n        /* \"#utility.yul\":645:678   */\n      tag_52\n        /* \"#utility.yul\":672:677   */\n      dup2\n        /* \"#utility.yul\":645:678   */\n      tag_36\n      jump\t// in\n    tag_52:\n        /* \"#utility.yul\":545:684   */\n      swap3\n      swap2\n      pop\n      pop\n      jump\t// out\n        /* \"#utility.yul\":690:1019   */\n    tag_7:\n        /* \"#utility.yul\":749:755   */\n      0x00\n        /* \"#utility.yul\":798:800   */\n      0x20\n        /* \"#utility.yul\":786:795   */\n      dup3\n        /* \"#utility.yul\":777:784   */\n      dup5\n        /* \"#utility.yul\":773:796   */\n      sub\n        /* \"#utility.yul\":769:801   */\n      slt\n        /* \"#utility.yul\":766:885   */\n      iszero\n      tag_54\n      jumpi\n        /* \"#utility.yul\":804:883   */\n      tag_55\n      tag_33\n      jump\t// in\n    tag_55:\n        /* \"#utility.yul\":766:885   */\n    tag_54:\n        /* \"#utility.yul\":924:925   */\n      0x00\n        /* \"#utility.yul\":949:1002   */\n      tag_56\n        /* \"#utility.yul\":994:1001   */\n      dup5\n        /* \"#utility.yul\":985:991   */\n      dup3\n        /* \"#utility.yul\":974:983   */\n      dup6\n        /* \"#utility.yul\":970:992   */\n      add\n        /* \"#utility.yul\":949:1002   */\n      tag_37\n      jump\t// in\n    tag_56:\n        /* \"#utility.yul\":939:1002   */\n      swap2\n      pop\n        /* \"#utility.yul\":895:1012   */\n      pop\n        /* \"#utility.yul\":690:1019   */\n      swap3\n      swap2\n      pop\n      pop\n      jump\t// out\n        /* \"#utility.yul\":1025:1143   */\n    tag_38:\n        /* \"#utility.yul\":1112:1136   */\n      tag_58\n        /* \"#utility.yul\":1130:1135   */\n      dup2\n        /* \"#utility.yul\":1112:1136   */\n      tag_35\n      jump\t// in\n    tag_58:\n        /* \"#utility.yul\":1107:1110   */\n      dup3\n        /* \"#utility.yul\":1100:1137   */\n      mstore\n        /* \"#utility.yul\":1025:1143   */\n      pop\n      pop\n      jump\t// out\n        /* \"#utility.yul\":1149:1371   */\n    tag_10:\n        /* \"#utility.yul\":1242:1246   */\n      0x00\n        /* \"#utility.yul\":1280:1282   */\n      0x20\n        /* \"#utility.yul\":1269:1278   */\n      dup3\n        /* \"#utility.yul\":1265:1283   */\n      add\n        /* \"#utility.yul\":1257:1283   */\n      swap1\n      pop\n        /* \"#utility.yul\":1293:1364   */\n      tag_60\n        /* \"#utility.yul\":1361:1362   */\n      0x00\n        /* \"#utility.yul\":1350:1359   */\n      dup4\n        /* \"#utility.yul\":1346:1363   */\n      add\n        /* \"#utility.yul\":1337:1343   */\n      dup5\n        /* \"#utility.yul\":1293:1364   */\n      tag_38\n      jump\t// in\n    tag_60:\n        /* \"#utility.yul\":1149:1371   */\n      swap3\n      swap2\n      pop\n      pop\n      jump\t// out\n        /* \"#utility.yul\":1377:1557   */\n    tag_25:\n        /* \"#utility.yul\":1425:1502   */\n      0x4e487b7100000000000000000000000000000000000000000000000000000000\n        /* \"#utility.yul\":1422:1423   */\n      0x00\n        /* \"#utility.yul\":1415:1503   */\n      mstore\n        /* \"#utility.yul\":1522:1526   */\n      0x32\n        /* \"#utility.yul\":1519:1520   */\n      0x04\n        /* \"#utility.yul\":1512:1527   */\n      mstore\n        /* \"#utility.yul\":1546:1550   */\n      0x24\n        /* \"#utility.yul\":1543:1544   */\n      0x00\n        /* \"#utility.yul\":1536:1551   */\n      revert\n        /* \"#utility.yul\":1563:1743   */\n    tag_39:\n        /* \"#utility.yul\":1611:1688   */\n      0x4e487b7100000000000000000000000000000000000000000000000000000000\n        /* \"#utility.yul\":1608:1609   */\n      0x00\n        /* \"#utility.yul\":1601:1689   */\n      mstore\n        /* \"#utility.yul\":1708:1712   */\n      0x11\n        /* \"#utility.yul\":1705:1706   */\n      0x04\n        /* \"#utility.yul\":1698:1713   */\n      mstore\n        /* \"#utility.yul\":1732:1736   */\n      0x24\n        /* \"#utility.yul\":1729:1730   */\n      0x00\n        /* \"#utility.yul\":1722:1737   */\n      revert\n        /* \"#utility.yul\":1749:1982   */\n    tag_29:\n        /* \"#utility.yul\":1788:1791   */\n      0x00\n        /* \"#utility.yul\":1811:1835   */\n      tag_64\n        /* \"#utility.yul\":1829:1834   */\n      dup3\n        /* \"#utility.yul\":1811:1835   */\n      tag_35\n      jump\t// in\n    tag_64:\n        /* \"#utility.yul\":1802:1835   */\n      swap2\n      pop\n        /* \"#utility.yul\":1857:1923   */\n      0xffffffffffffffffffffffffffffffffffffffffffffffffffffffffffffffff\n        /* \"#utility.yul\":1850:1855   */\n      dup3\n        /* \"#utility.yul\":1847:1924   */\n      sub\n        /* \"#utility.yul\":1844:1947   */\n      tag_65\n      jumpi\n        /* \"#utility.yul\":1927:1945   */\n      tag_66\n      tag_39\n      jump\t// in\n    tag_66:\n        /* \"#utility.yul\":1844:1947   */\n    tag_65:\n        /* \"#utility.yul\":1974:1975   */\n      0x01\n        /* \"#utility.yul\":1967:1972   */\n      dup3\n        /* \"#utility.yul\":1963:1976   */\n      add\n        /* \"#utility.yul\":1956:1976   */\n      swap1\n      pop\n        /* \"#utility.yul\":1749:1982   */\n      swap2\n      swap1\n      pop\n      jump\t// out\n        /* \"#utility.yul\":1988:2157   */\n    tag_40:\n        /* \"#utility.yul\":2072:2083   */\n      0x00\n        /* \"#utility.yul\":2106:2112   */\n      dup3\n        /* \"#utility.yul\":2101:2104   */\n      dup3\n        /* \"#utility.yul\":2094:2113   */\n      mstore\n        /* \"#utility.yul\":2146:2150   */\n      0x20\n        /* \"#utility.yul\":2141:2144   */\n      dup3\n        /* \"#utility.yul\":2137:2151   */\n      add\n        /* \"#utility.yul\":2122:2151   */\n      swap1\n      pop\n        /* \"#utility.yul\":1988:2157   */\n      swap3\n      swap2\n      pop\n      pop\n      jump\t// out\n        /* \"#utility.yul\":2163:2330   */\n    tag_41:\n        /* \"#utility.yul\":2303:2322   */\n      0x656c656d656e74206e6f7420666f756e64000000000000000000000000000000\n        /* \"#utility.yul\":2299:2300   */\n      0x00\n        /* \"#utility.yul\":2291:2297   */\n      dup3\n        /* \"#utility.yul\":2287:2301   */\n      add\n        /* \"#utility.yul\":2280:2323   */\n      mstore\n        /* \"#utility.yul\":2163:2330   */\n      pop\n      jump\t// out\n        /* \"#utility.yul\":2336:2702   */\n    tag_42:\n        /* \"#utility.yul\":2478:2481   */\n      0x00\n        /* \"#utility.yul\":2499:2566   */\n      tag_70\n        /* \"#utility.yul\":2563:2565   */\n      0x11\n        /* \"#utility.yul\":2558:2561   */\n      dup4\n        /* \"#utility.yul\":2499:2566   */\n      tag_40\n      jump\t// in\n    tag_70:\n        /* \"#utility.yul\":2492:2566   */\n      swap2\n      pop\n        /* \"#utility.yul\":2575:2668   */\n      tag_71\n        /* \"#utility.yul\":2664:2667   */\n      dup3\n        /* \"#utility.yul\":2575:2668   */\n      tag_41\n      jump\t// in\n    tag_71:\n        /* \"#utility.yul\":2693:2695   */\n      0x20\n        /* \"#utility.yul\":2688:2691   */\n      dup3\n        /* \"#utility.yul\":2684:2696   */\n      add\n        /* \"#utility.yul\":2677:2696   */\n      swap1\n      pop\n        /* \"#utility.yul\":2336:2702   */\n      swap2\n      swap1\n      pop\n      jump\t// out\n        /* \"#utility.yul\":2708:3127   */\n    tag_31:\n        /* \"#utility.yul\":2874:2878   */\n      0x00\n        /* \"#utility.yul\":2912:2914   */\n      0x20\n        /* \"#utility.yul\":2901:2910   */\n      dup3\n        /* \"#utility.yul\":2897:2915   */\n      add\n        /* \"#utility.yul\":2889:2915   */\n      swap1\n      pop\n        /* \"#utility.yul\":2961:2970   */\n      dup2\n        /* \"#utility.yul\":2955:2959   */\n      dup2\n        /* \"#utility.yul\":2951:2971   */\n      sub\n        /* \"#utility.yul\":2947:2948   */\n      0x00\n        /* \"#utility.yul\":2936:2945   */\n      dup4\n        /* \"#utility.yul\":2932:2949   */\n      add\n        /* \"#utility.yul\":2925:2972   */\n      mstore\n        /* \"#utility.yul\":2989:3120   */\n      tag_73\n        /* \"#utility.yul\":3115:3119   */\n      dup2\n        /* \"#utility.yul\":2989:3120   */\n      tag_42\n      jump\t// in\n    tag_73:\n        /* \"#utility.yul\":2981:3120   */\n      swap1\n      pop\n        /* \"#utility.yul\":2708:3127   */\n      swap2\n      swap1\n      pop\n      jump\t// out\n\n    auxdata: 0xa2646970667358221220e2341606c739a126a29e4e6d69f001fb38f3ce9a7ea9583abad812dfe93049b364736f6c63430008150033\n}\n",
				"bytecode": {
					"linkReferences": {},
					"object": "60806040526040518060600160405280600360ff168152602001600260ff168152602001600160ff168152505f90600361003a92919061004c565b50348015610046575f80fd5b506100b7565b828054828255905f5260205f2090810192821561008b579160200282015b8281111561008a578251829060ff1690559160200191906001019061006a565b5b509050610098919061009c565b5090565b5b808211156100b3575f815f90555060010161009d565b5090565b61032a806100c45f395ff3fe608060405234801561000f575f80fd5b5060043610610034575f3560e01c806371e5ee5f14610038578063a973e27c14610068575b5f80fd5b610052600480360381019061004d9190610188565b610086565b60405161005f91906101c2565b60405180910390f35b6100706100a5565b60405161007d91906101c2565b60405180910390f35b5f8181548110610094575f80fd5b905f5260205f20015f915090505481565b5f6100ba60025f6100bf90919063ffffffff16565b905090565b5f805f90505b838054905081101561010f57828482815481106100e5576100e46101db565b5b905f5260205f200154036100fc578091505061014b565b808061010790610235565b9150506100c5565b506040517f08c379a0000000000000000000000000000000000000000000000000000000008152600401610142906102d6565b60405180910390fd5b92915050565b5f80fd5b5f819050919050565b61016781610155565b8114610171575f80fd5b50565b5f813590506101828161015e565b92915050565b5f6020828403121561019d5761019c610151565b5b5f6101aa84828501610174565b91505092915050565b6101bc81610155565b82525050565b5f6020820190506101d55f8301846101b3565b92915050565b7f4e487b71000000000000000000000000000000000000000000000000000000005f52603260045260245ffd5b7f4e487b71000000000000000000000000000000000000000000000000000000005f52601160045260245ffd5b5f61023f82610155565b91507fffffffffffffffffffffffffffffffffffffffffffffffffffffffffffffffff820361027157610270610208565b5b600182019050919050565b5f82825260208201905092915050565b7f656c656d656e74206e6f7420666f756e640000000000000000000000000000005f82015250565b5f6102c060118361027c565b91506102cb8261028c565b602082019050919050565b5f6020820190508181035f8301526102ed816102b4565b905091905056fea2646970667358221220e2341606c739a126a29e4e6d69f001fb38f3ce9a7ea9583abad812dfe93049b364736f6c63430008150033",
					"opcodes": "PUSH1 0x80 PUSH1 0x40 MSTORE PUSH1 0x40 MLOAD DUP1 PUSH1 0x60 ADD PUSH1 0x40 MSTORE DUP1 PUSH1 0x3 PUSH1 0xFF AND DUP2 MSTORE PUSH1 0x20 ADD PUSH1 0x2 PUSH1 0xFF AND DUP2 MSTORE PUSH1 0x20 ADD PUSH1 0x1 PUSH1 0xFF AND DUP2 MSTORE POP PUSH0 SWAP1 PUSH1 0x3 PUSH2 0x3A SWAP3 SWAP2 SWAP1 PUSH2 0x4C JUMP JUMPDEST POP CALLVALUE DUP1 ISZERO PUSH2 0x46 JUMPI PUSH0 DUP1 REVERT JUMPDEST POP PUSH2 0xB7 JUMP JUMPDEST DUP3 DUP1 SLOAD DUP3 DUP3 SSTORE SWAP1 PUSH0 MSTORE PUSH1 0x20 PUSH0 KECCAK256 SWAP1 DUP2 ADD SWAP3 DUP3 ISZERO PUSH2 0x8B JUMPI SWAP2 PUSH1 0x20 MUL DUP3 ADD JUMPDEST DUP3 DUP2 GT ISZERO PUSH2 0x8A JUMPI DUP3 MLOAD DUP3 SWAP1 PUSH1 0xFF AND SWAP1 SSTORE SWAP2 PUSH1 0x20 ADD SWAP2 SWAP1 PUSH1 0x1 ADD SWAP1 PUSH2 0x6A JUMP JUMPDEST JUMPDEST POP SWAP1 POP PUSH2 0x98 SWAP2 SWAP1 PUSH2 0x9C JUMP JUMPDEST POP SWAP1 JUMP JUMPDEST JUMPDEST DUP1 DUP3 GT ISZERO PUSH2 0xB3 JUMPI PUSH0 DUP2 PUSH0 SWAP1 SSTORE POP PUSH1 0x1 ADD PUSH2 0x9D JUMP JUMPDEST POP SWAP1 JUMP JUMPDEST PUSH2 0x32A DUP1 PUSH2 0xC4 PUSH0 CODECOPY PUSH0 RETURN INVALID PUSH1 0x80 PUSH1 0x40 MSTORE CALLVALUE DUP1 ISZERO PUSH2 0xF JUMPI PUSH0 DUP1 REVERT JUMPDEST POP PUSH1 0x4 CALLDATASIZE LT PUSH2 0x34 JUMPI PUSH0 CALLDATALOAD PUSH1 0xE0 SHR DUP1 PUSH4 0x71E5EE5F EQ PUSH2 0x38 JUMPI DUP1 PUSH4 0xA973E27C EQ PUSH2 0x68 JUMPI JUMPDEST PUSH0 DUP1 REVERT JUMPDEST PUSH2 0x52 PUSH1 0x4 DUP1 CALLDATASIZE SUB DUP2 ADD SWAP1 PUSH2 0x4D SWAP2 SWAP1 PUSH2 0x188 JUMP JUMPDEST PUSH2 0x86 JUMP JUMPDEST PUSH1 0x40 MLOAD PUSH2 0x5F SWAP2 SWAP1 PUSH2 0x1C2 JUMP JUMPDEST PUSH1 0x40 MLOAD DUP1 SWAP2 SUB SWAP1 RETURN JUMPDEST PUSH2 0x70 PUSH2 0xA5 JUMP JUMPDEST PUSH1 0x40 MLOAD PUSH2 0x7D SWAP2 SWAP1 PUSH2 0x1C2 JUMP JUMPDEST PUSH1 0x40 MLOAD DUP1 SWAP2 SUB SWAP1 RETURN JUMPDEST PUSH0 DUP2 DUP2 SLOAD DUP2 LT PUSH2 0x94 JUMPI PUSH0 DUP1 REVERT JUMPDEST SWAP1 PUSH0 MSTORE PUSH1 0x20 PUSH0 KECCAK256 ADD PUSH0 SWAP2 POP SWAP1 POP SLOAD DUP2 JUMP JUMPDEST PUSH0 PUSH2 0xBA PUSH1 0x2 PUSH0 PUSH2 0xBF SWAP1 SWAP2 SWAP1 PUSH4 0xFFFFFFFF AND JUMP JUMPDEST SWAP1 POP SWAP1 JUMP JUMPDEST PUSH0 DUP1 PUSH0 SWAP1 POP JUMPDEST DUP4 DUP1 SLOAD SWAP1 POP DUP2 LT ISZERO PUSH2 0x10F JUMPI DUP3 DUP5 DUP3 DUP2 SLOAD DUP2 LT PUSH2 0xE5 JUMPI PUSH2 0xE4 PUSH2 0x1DB JUMP JUMPDEST JUMPDEST SWAP1 PUSH0 MSTORE PUSH1 0x20 PUSH0 KECCAK256 ADD SLOAD SUB PUSH2 0xFC JUMPI DUP1 SWAP2 POP POP PUSH2 0x14B JUMP JUMPDEST DUP1 DUP1 PUSH2 0x107 SWAP1 PUSH2 0x235 JUMP JUMPDEST SWAP2 POP POP PUSH2 0xC5 JUMP JUMPDEST POP PUSH1 0x40 MLOAD PUSH32 0x8C379A000000000000000000000000000000000000000000000000000000000 DUP2 MSTORE PUSH1 0x4 ADD PUSH2 0x142 SWAP1 PUSH2 0x2D6 JUMP JUMPDEST PUSH1 0x40 MLOAD DUP1 SWAP2 SUB SWAP1 REVERT JUMPDEST SWAP3 SWAP2 POP POP JUMP JUMPDEST PUSH0 DUP1 REVERT JUMPDEST PUSH0 DUP2 SWAP1 POP SWAP2 SWAP1 POP JUMP JUMPDEST PUSH2 0x167 DUP2 PUSH2 0x155 JUMP JUMPDEST DUP2 EQ PUSH2 0x171 JUMPI PUSH0 DUP1 REVERT JUMPDEST POP JUMP JUMPDEST PUSH0 DUP2 CALLDATALOAD SWAP1 POP PUSH2 0x182 DUP2 PUSH2 0x15E JUMP JUMPDEST SWAP3 SWAP2 POP POP JUMP JUMPDEST PUSH0 PUSH1 0x20 DUP3 DUP5 SUB SLT ISZERO PUSH2 0x19D JUMPI PUSH2 0x19C PUSH2 0x151 JUMP JUMPDEST JUMPDEST PUSH0 PUSH2 0x1AA DUP5 DUP3 DUP6 ADD PUSH2 0x174 JUMP JUMPDEST SWAP2 POP POP SWAP3 SWAP2 POP POP JUMP JUMPDEST PUSH2 0x1BC DUP2 PUSH2 0x155 JUMP JUMPDEST DUP3 MSTORE POP POP JUMP JUMPDEST PUSH0 PUSH1 0x20 DUP3 ADD SWAP1 POP PUSH2 0x1D5 PUSH0 DUP4 ADD DUP5 PUSH2 0x1B3 JUMP JUMPDEST SWAP3 SWAP2 POP POP JUMP JUMPDEST PUSH32 0x4E487B7100000000000000000000000000000000000000000000000000000000 PUSH0 MSTORE PUSH1 0x32 PUSH1 0x4 MSTORE PUSH1 0x24 PUSH0 REVERT JUMPDEST PUSH32 0x4E487B7100000000000000000000000000000000000000000000000000000000 PUSH0 MSTORE PUSH1 0x11 PUSH1 0x4 MSTORE PUSH1 0x24 PUSH0 REVERT JUMPDEST PUSH0 PUSH2 0x23F DUP3 PUSH2 0x155 JUMP JUMPDEST SWAP2 POP PUSH32 0xFFFFFFFFFFFFFFFFFFFFFFFFFFFFFFFFFFFFFFFFFFFFFFFFFFFFFFFFFFFFFFFF DUP3 SUB PUSH2 0x271 JUMPI PUSH2 0x270 PUSH2 0x208 JUMP JUMPDEST JUMPDEST PUSH1 0x1 DUP3 ADD SWAP1 POP SWAP2 SWAP1 POP JUMP JUMPDEST PUSH0 DUP3 DUP3 MSTORE PUSH1 0x20 DUP3 ADD SWAP1 POP SWAP3 SWAP2 POP POP JUMP JUMPDEST PUSH32 0x656C656D656E74206E6F7420666F756E64000000000000000000000000000000 PUSH0 DUP3 ADD MSTORE POP JUMP JUMPDEST PUSH0 PUSH2 0x2C0 PUSH1 0x11 DUP4 PUSH2 0x27C JUMP JUMPDEST SWAP2 POP PUSH2 0x2CB DUP3 PUSH2 0x28C JUMP JUMPDEST PUSH1 0x20 DUP3 ADD SWAP1 POP SWAP2 SWAP1 POP JUMP JUMPDEST PUSH0 PUSH1 0x20 DUP3 ADD SWAP1 POP DUP2 DUP2 SUB PUSH0 DUP4 ADD MSTORE PUSH2 0x2ED DUP2 PUSH2 0x2B4 JUMP JUMPDEST SWAP1 POP SWAP2 SWAP1 POP JUMP INVALID LOG2 PUSH5 0x6970667358 0x22 SLT KECCAK256 0xE2 CALLVALUE AND MOD 0xC7 CODECOPY LOG1 0x26 LOG2 SWAP15 0x4E PUSH14 0x69F001FB38F3CE9A7EA9583ABAD8 SLT 0xDF 0xE9 ADDRESS 0x49 0xB3 PUSH5 0x736F6C6343 STOP ADDMOD ISZERO STOP CALLER "
				},
				"gasEstimates": {
					"creation": {
						"codeDepositCost": "162000",
						"executionCost": "infinite",
						"totalCost": "infinite"
					},
					"external": {
						"arr(uint256)": "infinite",
						"testFind()": "infinite"
					}
				},
				"methodIdentifiers": {
					"arr(uint256)": "71e5ee5f",
					"testFind()": "a973e27c"
				}
			},
			"storageLayout": {
				"storage": [
					{
						"astId": 84,
						"contract": "8.Library/Library.sol:TestArray",
						"label": "arr",
						"offset": 0,
						"slot": "0",
						"type": "t_array(t_uint256)dyn_storage"
					}
				],
				"types": {
					"t_array(t_uint256)dyn_storage": {
						"base": "t_uint256",
						"encoding": "dynamic_array",
						"label": "uint256[]",
						"numberOfBytes": "32"
					},
					"t_uint256": {
						"encoding": "inplace",
						"label": "uint256",
						"numberOfBytes": "32"
					}
				}
			},
			"userdoc": {
				"kind": "user",
				"methods": {},
				"version": 1
			}
		}
	}
}