{
	"10.ConsoleThis/ConsoleThis.sol": {
		"ConsoleThis": {
			"abi": [
				{
					"inputs": [],
					"name": "console",
					"outputs": [
						{
							"internalType": "contract ConsoleThis",
							"name": "",
							"type": "address"
						}
					],
					"stateMutability": "view",
					"type": "function"
				}
			],
			"devdoc": {
				"kind": "dev",
				"methods": {},
				"version": 1
			},
			"evm": {
				"assembly": "    /* \"10.ConsoleThis/ConsoleThis.sol\":60:173  contract ConsoleThis{... */\n  mstore(0x40, 0x80)\n  callvalue\n  dup1\n  iszero\n  tag_1\n  jumpi\n  0x00\n  dup1\n  revert\ntag_1:\n  pop\n  dataSize(sub_0)\n  dup1\n  dataOffset(sub_0)\n  0x00\n  codecopy\n  0x00\n  return\nstop\n\nsub_0: assembly {\n        /* \"10.ConsoleThis/ConsoleThis.sol\":60:173  contract ConsoleThis{... */\n      mstore(0x40, 0x80)\n      callvalue\n      dup1\n      iszero\n      tag_1\n      jumpi\n      0x00\n      dup1\n      revert\n    tag_1:\n      pop\n      jumpi(tag_2, lt(calldatasize, 0x04))\n      shr(0xe0, calldataload(0x00))\n      dup1\n      0xea299f2f\n      eq\n      tag_3\n      jumpi\n    tag_2:\n      0x00\n      dup1\n      revert\n        /* \"10.ConsoleThis/ConsoleThis.sol\":87:170  function console() external view returns(ConsoleThis){... */\n    tag_3:\n      tag_4\n      tag_5\n      jump\t// in\n    tag_4:\n      mload(0x40)\n      tag_6\n      swap2\n      swap1\n      tag_7\n      jump\t// in\n    tag_6:\n      mload(0x40)\n      dup1\n      swap2\n      sub\n      swap1\n      return\n    tag_5:\n        /* \"10.ConsoleThis/ConsoleThis.sol\":128:139  ConsoleThis */\n      0x00\n        /* \"10.ConsoleThis/ConsoleThis.sol\":158:162  this */\n      address\n        /* \"10.ConsoleThis/ConsoleThis.sol\":151:162  return this */\n      swap1\n      pop\n        /* \"10.ConsoleThis/ConsoleThis.sol\":87:170  function console() external view returns(ConsoleThis){... */\n      swap1\n      jump\t// out\n        /* \"#utility.yul\":7:133   */\n    tag_9:\n        /* \"#utility.yul\":44:51   */\n      0x00\n        /* \"#utility.yul\":84:126   */\n      0xffffffffffffffffffffffffffffffffffffffff\n        /* \"#utility.yul\":77:82   */\n      dup3\n        /* \"#utility.yul\":73:127   */\n      and\n        /* \"#utility.yul\":62:127   */\n      swap1\n      pop\n        /* \"#utility.yul\":7:133   */\n      swap2\n      swap1\n      pop\n      jump\t// out\n        /* \"#utility.yul\":139:199   */\n    tag_10:\n        /* \"#utility.yul\":167:170   */\n      0x00\n        /* \"#utility.yul\":188:193   */\n      dup2\n        /* \"#utility.yul\":181:193   */\n      swap1\n      pop\n        /* \"#utility.yul\":139:199   */\n      swap2\n      swap1\n      pop\n      jump\t// out\n        /* \"#utility.yul\":205:347   */\n    tag_11:\n        /* \"#utility.yul\":255:264   */\n      0x00\n        /* \"#utility.yul\":288:341   */\n      tag_19\n        /* \"#utility.yul\":306:340   */\n      tag_20\n        /* \"#utility.yul\":315:339   */\n      tag_21\n        /* \"#utility.yul\":333:338   */\n      dup5\n        /* \"#utility.yul\":315:339   */\n      tag_9\n      jump\t// in\n    tag_21:\n        /* \"#utility.yul\":306:340   */\n      tag_10\n      jump\t// in\n    tag_20:\n        /* \"#utility.yul\":288:341   */\n      tag_9\n      jump\t// in\n    tag_19:\n        /* \"#utility.yul\":275:341   */\n      swap1\n      pop\n        /* \"#utility.yul\":205:347   */\n      swap2\n      swap1\n      pop\n      jump\t// out\n        /* \"#utility.yul\":353:479   */\n    tag_12:\n        /* \"#utility.yul\":403:412   */\n      0x00\n        /* \"#utility.yul\":436:473   */\n      tag_23\n        /* \"#utility.yul\":467:472   */\n      dup3\n        /* \"#utility.yul\":436:473   */\n      tag_11\n      jump\t// in\n    tag_23:\n        /* \"#utility.yul\":423:473   */\n      swap1\n      pop\n        /* \"#utility.yul\":353:479   */\n      swap2\n      swap1\n      pop\n      jump\t// out\n        /* \"#utility.yul\":485:629   */\n    tag_13:\n        /* \"#utility.yul\":553:562   */\n      0x00\n        /* \"#utility.yul\":586:623   */\n      tag_25\n        /* \"#utility.yul\":617:622   */\n      dup3\n        /* \"#utility.yul\":586:623   */\n      tag_12\n      jump\t// in\n    tag_25:\n        /* \"#utility.yul\":573:623   */\n      swap1\n      pop\n        /* \"#utility.yul\":485:629   */\n      swap2\n      swap1\n      pop\n      jump\t// out\n        /* \"#utility.yul\":635:802   */\n    tag_14:\n        /* \"#utility.yul\":740:795   */\n      tag_27\n        /* \"#utility.yul\":789:794   */\n      dup2\n        /* \"#utility.yul\":740:795   */\n      tag_13\n      jump\t// in\n    tag_27:\n        /* \"#utility.yul\":735:738   */\n      dup3\n        /* \"#utility.yul\":728:796   */\n      mstore\n        /* \"#utility.yul\":635:802   */\n      pop\n      pop\n      jump\t// out\n        /* \"#utility.yul\":808:1066   */\n    tag_7:\n        /* \"#utility.yul\":919:923   */\n      0x00\n        /* \"#utility.yul\":957:959   */\n      0x20\n        /* \"#utility.yul\":946:955   */\n      dup3\n        /* \"#utility.yul\":942:960   */\n      add\n        /* \"#utility.yul\":934:960   */\n      swap1\n      pop\n        /* \"#utility.yul\":970:1059   */\n      tag_29\n        /* \"#utility.yul\":1056:1057   */\n      0x00\n        /* \"#utility.yul\":1045:1054   */\n      dup4\n        /* \"#utility.yul\":1041:1058   */\n      add\n        /* \"#utility.yul\":1032:1038   */\n      dup5\n        /* \"#utility.yul\":970:1059   */\n      tag_14\n      jump\t// in\n    tag_29:\n        /* \"#utility.yul\":808:1066   */\n      swap3\n      swap2\n      pop\n      pop\n      jump\t// out\n\n    auxdata: 0xa2646970667358221220bff087a205946412b852538a17fcf12b4082c5ea1c05ca708208c5adc70b16df64736f6c63430008150033\n}\n",
				"bytecode": {
					"linkReferences": {},
					"object": "608060405234801561000f575f80fd5b506101068061001d5f395ff3fe6080604052348015600e575f80fd5b50600436106026575f3560e01c8063ea299f2f14602a575b5f80fd5b60306044565b604051603b919060b9565b60405180910390f35b5f30905090565b5f73ffffffffffffffffffffffffffffffffffffffff82169050919050565b5f819050919050565b5f60876083607f84604b565b606a565b604b565b9050919050565b5f6096826073565b9050919050565b5f60a582608e565b9050919050565b60b381609d565b82525050565b5f60208201905060ca5f83018460ac565b9291505056fea2646970667358221220bff087a205946412b852538a17fcf12b4082c5ea1c05ca708208c5adc70b16df64736f6c63430008150033",
					"opcodes": "PUSH1 0x80 PUSH1 0x40 MSTORE CALLVALUE DUP1 ISZERO PUSH2 0xF JUMPI PUSH0 DUP1 REVERT JUMPDEST POP PUSH2 0x106 DUP1 PUSH2 0x1D PUSH0 CODECOPY PUSH0 RETURN INVALID PUSH1 0x80 PUSH1 0x40 MSTORE CALLVALUE DUP1 ISZERO PUSH1 0xE JUMPI PUSH0 DUP1 REVERT JUMPDEST POP PUSH1 0x4 CALLDATASIZE LT PUSH1 0x26 JUMPI PUSH0 CALLDATALOAD PUSH1 0xE0 SHR DUP1 PUSH4 0xEA299F2F EQ PUSH1 0x2A JUMPI JUMPDEST PUSH0 DUP1 REVERT JUMPDEST PUSH1 0x30 PUSH1 0x44 JUMP JUMPDEST PUSH1 0x40 MLOAD PUSH1 0x3B SWAP2 SWAP1 PUSH1 0xB9 JUMP JUMPDEST PUSH1 0x40 MLOAD DUP1 SWAP2 SUB SWAP1 RETURN JUMPDEST PUSH0 ADDRESS SWAP1 POP SWAP1 JUMP JUMPDEST PUSH0 PUSH20 0xFFFFFFFFFFFFFFFFFFFFFFFFFFFFFFFFFFFFFFFF DUP3 AND SWAP1 POP SWAP2 SWAP1 POP JUMP JUMPDEST PUSH0 DUP2 SWAP1 POP SWAP2 SWAP1 POP JUMP JUMPDEST PUSH0 PUSH1 0x87 PUSH1 0x83 PUSH1 0x7F DUP5 PUSH1 0x4B JUMP JUMPDEST PUSH1 0x6A JUMP JUMPDEST PUSH1 0x4B JUMP JUMPDEST SWAP1 POP SWAP2 SWAP1 POP JUMP JUMPDEST PUSH0 PUSH1 0x96 DUP3 PUSH1 0x73 JUMP JUMPDEST SWAP1 POP SWAP2 SWAP1 POP JUMP JUMPDEST PUSH0 PUSH1 0xA5 DUP3 PUSH1 0x8E JUMP JUMPDEST SWAP1 POP SWAP2 SWAP1 POP JUMP JUMPDEST PUSH1 0xB3 DUP2 PUSH1 0x9D JUMP JUMPDEST DUP3 MSTORE POP POP JUMP JUMPDEST PUSH0 PUSH1 0x20 DUP3 ADD SWAP1 POP PUSH1 0xCA PUSH0 DUP4 ADD DUP5 PUSH1 0xAC JUMP JUMPDEST SWAP3 SWAP2 POP POP JUMP INVALID LOG2 PUSH5 0x6970667358 0x22 SLT KECCAK256 0xBF CREATE DUP8 LOG2 SDIV SWAP5 PUSH5 0x12B852538A OR 0xFC CALL 0x2B BLOCKHASH DUP3 0xC5 0xEA SHR SDIV 0xCA PUSH17 0x8208C5ADC70B16DF64736F6C6343000815 STOP CALLER "
				},
				"gasEstimates": {
					"creation": {
						"codeDepositCost": "52400",
						"executionCost": "103",
						"totalCost": "52503"
					},
					"external": {
						"console()": "infinite"
					}
				},
				"methodIdentifiers": {
					"console()": "ea299f2f"
				}
			},
			"storageLayout": {
				"storage": [],
				"types": null
			},
			"userdoc": {
				"kind": "user",
				"methods": {},
				"version": 1
			}
		}
	}
}